:020000040800F2
:10000000107E002061020008CB480008FF42000873
:10001000C9480008730C0008DD6A000800000000F1
:10002000000000000000000000000000A101000826
:10003000BD13000800000000FD010008C9520008BF
:100040007B0200087B0200087B0200087B0200089C
:100050007B0200087B020008BF1300087B02000837
:100060007B020008C5130008CB1300087B020008C0
:10007000411100087B0200087B0200087B02000897
:100080007B0200087B0200087B020008810C00084C
:10009000750C00087B0200087B020008D1130008E1
:1000A0007B0200087B0200087B0200087B0200083C
:1000B000995300087B0200087B0200087B020008BD
:1000C0007B0200087B0200087B0200087B0200081C
:1000D0007B0200083D5A00087B020008A55A000870
:1000E0007B0200087B0200087B0200087B020008FC
:1000F0007B0200087B0200087B0200087B020008EC
:100100007B0200087B0200087B0200087B020008DB
:100110007B0200087B0200087B0200087B020008CB
:100120007B0200084D1100087B0200087B020008DA
:100130007B0200087B0200087B020008990C000883
:100140007B0200088D0C00087B020008CD480008E7
:10015000591100087B020008651100087B020008A5
:100160007B0200087B0200087B0200087B0200087B
:100170007B0200087B0200087B02000800000000F0
:100180007B0200087B020008DFF810D000F09AFC28
:10019000004800473DA90008AFF30080107E002012
:1001A0002C4B19680868B0E8F04F80F30988BFF35A
:1001B0006F8F4FF0000080F311887047000000003F
:1001C00008480068006880F308884FF0000080F35A
:1001D000148862B661B6BFF34F8FBFF36F8F00DF35
:1001E00000BF00BF08ED00E0DFF80C00016841F43B
:1001F00070010160704700BF88ED00E0EFF30980F7
:10020000BFF36F8F134B1A681EF0100F08BF20ED5D
:10021000108A20E9F04F106009B44FF0500080F3CD
:100220001188BFF34F8FBFF36F8F0BF0EDFD4FF0D1
:10023000000080F3118809BC19680868B0E8F04F25
:100240001EF0100F08BFB0EC108A80F30988BFF3CE
:100250006F8F704704020020EFF3058070470000A5
:100260000648804706480047FEE7FEE7FEE7FEE750
:10027000FEE7FEE7FEE7FEE7FEE7FEE7895300083C
:10028000890100089FED1A1AF5EE000A40EE010AF6
:10029000BDEEE00AF5EEC00A10EE100AF1EE10FA1B
:1002A00038BF401E00EE100A1349F7EE001AB8EEF0
:1002B000C00A30EEC00ADFED0F0A20EE200AFCEE85
:1002C000C00A10EE900AC0F3080000EE900A01EB9D
:1002D0008000F8EE600A90ED011A70EE600A90ED71
:1002E000000A71EEE01A21EE800A00EE810A7047E2
:1002F00083F9223E0000004478C200082DE9F05F37
:100300000546002092469B46884606468146402484
:100310001BE0284641464746224600F09CFA5346D9
:100320005A46C01A914110D311461846224600F091
:1003300083FA2D1A67EB01084F462246012000215F
:1003400000F07AFA17EB00094E41201EA4F10104D7
:10035000DFDC484631462A464346BDE8F09F40EA86
:1003600001039B0703D009E008C9121F08C0042A33
:10037000FAD203E011F8013B00F8013B521EF9D21A
:100380007047D2B201E000F8012B491EFBD2704742
:100390000022F6E710B513460A4604461946FFF751
:1003A000F0FF204610BD2DE9FE4F804681EA030094
:1003B000C00F0C46009021F0004123F00045B8EB3F
:1003C0000200A94105D24046214690461C460B46F4
:1003D000024623F00040104347D0270DC7F30A0020
:1003E000C3F30A510290401A019040286BDAC3F31C
:1003F000130040F4801B0098924620B10023D2EBFA
:10040000030A63EB0B0B01985946C0F140025046BA
:1004100000F012FA06460D4650465946019A00F081
:100420002AFA10EB08006141002487EA115284EA9D
:10043000E7731A4340D0009A62B3019A012A4FEA47
:10044000075215DC001B61EB02014FF0004202EA8B
:100450000752CDE90042001C41F5801132462B467F
:1004600000F061FA03B0BDE8F08F40462146F9E79D
:10047000001B61EB0201001C41F5801300185B4179
:100480002018A2F5001747EB030140EAD570B61912
:100490006D4111E06D084FEA360645EAC0754FEA36
:1004A0000752001B61EB0201001C41F58011490855
:1004B0004FEA30000019514132462B4603B0BDE8E7
:1004C000F04F00F021BA0098012240000023D0EB49
:1004D000020263EBE073009821464FEAE074B8EB48
:1004E000000061EB0401E9E783F000435BE781F082
:1004F000004158E72DE9FE4F81EA030404F000446F
:1005000021F0004100944FF0000B23F0004350EA2B
:1005100001045ED052EA03045BD0C3F30A54C1F372
:100520000A552C44A4F2F3340194A0FB0254C1F305
:10053000130141F48011C3F3130343F4801301FB4F
:10054000024400FB034E840A970A44EA815447EAB6
:100550008357A4FB076802958D0A05FB07854FEAC0
:10056000932C04FB0C542705029D4FEA065847EADA
:100570001637B5EB08056EEB070C870E920E47EAAF
:10058000811742EA8312A7FB0201B6EB0B0164EB71
:1005900000042B0D43EA0C335E1844EB1C50DA4682
:1005A0005146E7FB0201C5F313044FEA0B3343EA5C
:1005B00014534FEA0432019C43EA0603A4F10C04ED
:1005C0000294009CCDE900B400F0ADF903B0BDE8A1
:1005D000F08F00200146F9E72DE9F04D81EA030490
:1005E00004F0004B21F0004514464FF0000A23F0C0
:1005F000004150EA050220D054EA01021DD0C5F3A3
:100600000A570246C5F31303C1F31300C1F30A5698
:1006100040F4801543F48013A7EB0608101BD64660
:1006200008F2FD3873EB050002D308F1010801E080
:1006300092185B41B8F1000F03DA00200146BDE8D3
:10064000F08D00204FF48011064684460EE0171B03
:1006500073EB050705D3121B63EB050306434CEA56
:10066000010C49084FEA300092185B4150EA01073B
:10067000EDD152EA030012D082EA040083EA0501B8
:10068000084305D0101BAB4106D20122002306E02F
:1006900000224FF0004302E06FF0010253101AEB0A
:1006A00006004CEB085110EB0A0041EB0B01BDE8D2
:1006B000F04D00F029B930B40446962308002146D5
:1006C00004D0B62330BC002200F0F0B82046002150
:1006D000F8E70EB5C10F80EAE0700844CA070021B0
:1006E00040F233438DE80E000A460B4600F01BF93A
:1006F00003B000BD0EB540F2334102910021CDE9B7
:1007000000110A460B4600F00EF903B000BD70B5AB
:10071000C1F30A5201F000450024C1F3130140F275
:10072000FF3341F480119A4201DA002070BD40F29B
:1007300033439A42A2F2334203DC524200F08BF878
:1007400000E090402C43F1D0404270BD00F00042E8
:1007500030F000400AD0C10D01F56071C0F3160001
:1007600042EA0151C2084007114370470020014688
:100770007047000030B5041E71F1000404DB4FF037
:100780000044404264EB0101141E73F1000405DBD8
:100790001C464FF00043524263EB04038B4208BFF8
:1007A000824230BD30B5041E71F1000404DB4FF00D
:1007B0000044404264EB0101141E73F1000405DBA8
:1007C0001C464FF00043524263EB0403994208BFBA
:1007D000904230BD01F0004330B421F0004150EAB6
:1007E000010206D00A0DA2F56072C1F31301002ABE
:1007F00002DC30BC00207047440F44EAC104C10051
:10080000E01830BC00EBC25000F047B830B50B46E2
:10081000014600202022012409E021FA02F59D4230
:1008200005D303FA02F5491B04FA02F52844151E04
:10083000A2F10102F1DC30BD202A04DB203A00FAEB
:1008400002F1002070479140C2F1200320FA03F327
:10085000194390407047202A04DB203A21FA02F025
:100860000021704721FA02F3D040C2F120029140EA
:10087000084319467047202A06DBCB17203A41FA75
:1008800002F043EAE07306E041FA02F3D040C2F11D
:10089000200291400843194670470029A8BF7047BD
:1008A000401C490008BF20F00100704710B4B0FAA6
:1008B00080FC00FA0CF050EA010404BF10BC704741
:1008C00049B1CCF1200421FA04F411FA0CF118BF5B
:1008D000012121430843A3EB0C01CB1D4FEA00612A
:1008E0004FEA102042BF002010BC704700EBC350FD
:1008F00010440029A4BF10BC7047401C490008BF29
:1009000020F0010010BC704710B5141E73F10004F4
:1009100008DA401C41F1000192185B411A4301D1F1
:1009200020F0010010BD2DE9F04D92469B4611B11B
:10093000B1FA81F202E0B0FA80F220329046FFF77D
:100940007BFF04460F4640EA0A0041EA0B0153468A
:100950005A46084313D0114653EA010019D0C8F192
:1009600040025046FFF777FF05460E46504659466F
:100970004246FFF761FF084305D0012004E020460E
:100980003946BDE8F08D0020054346EAE0762C4369
:1009900037430A986305E40AA0EB08000022FD0A29
:1009A00044EA47540A3002D500200146E9E7010530
:1009B00010196941DDE9084500196941BDE8F04DAC
:1009C000A2E770B521F0004303430CD0C1F30A55F0
:1009D0000024D5EB040564EB0403D617AD1AB3412C
:1009E00002DB0020014670BD201841EB025170BDB2
:1009F0002DE9F04D00231A461B1A8A4103DB002023
:100A00000146BDE8F08DC1F30A52C1F3130141F470
:100A100080154FF0000BD10702D100186D41521E16
:100A20000027044640F2FF11384601EB620A3E46B9
:100A30008046024600204FF48011FFF70CFFC219D8
:100A40007141BB1846EB0100B4EB030C75EB000CD5
:100A500004D3E41A65EB000517460E46241908F185
:100A600001006D4180463428E3DDF91946EB0600AC
:100A7000091BA84103D24FF0FF32134601E00022C8
:100A800013461BEB070046EB0A51BDE8F04DFFF79C
:100A90003BBFC1F30A52C1F3130140F2FF3341F4EB
:100AA00080119A4202DA00200146704740F2334337
:100AB0009A42A2F2334202DC5242FFF7CCBEFFF769
:100AC000BBBE0000064C074D06E0E06840F00103A5
:100AD00094E8070098471034AC42F6D3FFF758FB70
:100AE00014CD000834CD000870B58C1810F8015BE7
:100AF00015F0070301D110F8013B2A1106D110F8B7
:100B0000012B03E010F8016B01F8016B5B1EF9D1BA
:100B10002B0705D40023521E0DD401F8013BFAE740
:100B200010F8013BCB1A921C03E013F8015B01F8AB
:100B3000015B521EF9D5A142D8D3002070BD000040
:100B400001221021014801F08FBB0000000002408B
:100B500000221021014801F087BB00000000024084
:100B600001221146014801F07FBB00000004024051
:100B700000220121014801F077BB0000000402407F
:100B800070B50D461649174C08600020A07008F09B
:100B90009BFAA1780843A07008F02AFBA1780843CB
:100BA000A0701DB1104800F07DF816E00E489FEDD2
:100BB0000F0A80ED090A9FED0E0A80ED0A0A80ED0A
:100BC0000B0A9FED0C0A80ED0C0A9FED0B0A80EDDD
:100BD000080A9FED0A0A80ED060AA07870BD0000A1
:100BE000B802002070020020A85A0020AC38223B36
:100BF000B016CE393F161B41C48B813F0000204206
:100C000070B514460D4640F0800000F017F806E07D
:100C1000552000F013F8641E05F8010BE4B2002C17
:100C2000F6D170BD10B50C4640F0800000F006F81B
:100C3000552000F003F8207010BD000001B582B00F
:100C40004FF47A7000900548012301AA02A90068B8
:100C500002F0A6FC9DF804000EBD0000B8020020C2
:100C600010B50C46FFF7EAFF2046BDE81040FFF73D
:100C7000E5BFFEE7014800F02CBD0000200B00207E
:100C8000014800F026BD0000200B0020014800F0C4
:100C900020BD0000480B0020014800F01ABD0000F4
:100CA000480B00202DE9F04F04462DED048B89B050
:100CB00000200090019000F0DBFAED4DDFF8B4B3B6
:100CC000DFF8B49385ED050A02AE0DF114084FF07C
:100CD0007C5A00BF00F0CCFAD5ED050A30EE600A70
:100CE00010EE100A584512DD9FEDE40A84ED090A62
:100CF0009FEDE30A84ED0A0A84ED0B0A9FEDE10AF9
:100D000084ED0C0A9FEDE00A84ED060A8BE19FED6D
:100D1000DF0A00F093FA9FEDDE0A002784ED0C0A4B
:100D200084ED090A84ED0A0A84ED0B0AFBE000BF9A
:100D3000FFF70EFF9220FFF781FF0622694612207F
:100D4000FFF75EFFFFF7FCFE9DF801009DF8001025
:100D5000000200B2084300EE100AD5ED030AB8EE17
:100D6000C00A60EE201AC4ED001A9DF803009DF839
:100D70000210000200B2084300EE100A95ED031ABB
:100D8000B8EEC00A60EE010AC4ED010A9DF8050044
:100D90009DF80410000200B2084300EE100AB8EEFD
:100DA000C00A20EE011A21EEA10A84ED021A00EE1B
:100DB000A00A01EE010A07F0ACF8B0EE408A94ED0B
:100DC0000C0A30EE080A84ED0C0AFFF7D1FE082267
:100DD00069460020FFF714FFFFF7C2FE9DF80000F0
:100DE0000F2840D19DF803009DF80210000200B2C8
:100DF000084300EE100AD5ED040AB8EEC00A20EE52
:100E0000200A84ED030A94ED091A31EE000A84EDFC
:100E1000090A9DF805009DF80410000200B208437D
:100E200000EE100AB8EEC00A20EE200A84ED040A93
:100E300094ED0A1A31EE000A84ED0A0A9DF80700C3
:100E40009DF80610000200B2084300EE100AB8EE4A
:100E5000C00A20EE200A84ED050AD4ED0B0A30EE1C
:100E6000800A84ED0B0A002F7ED0B4EEC98AF1EE21
:100E700010FA01DDB0EE489AB4EEE88AF1EE10FA0D
:100E800001D2F0EE488A00204FEA080204EB80010C
:100E900091ED030A06EB8001D1ED000AB4EEE00A01
:100EA000F1EE10FA01DD81ED000A02EB8001D1EDD7
:100EB000000AB4EEE00AF1EE10FA01D281ED000A68
:100EC000401CC0B20328E1D339EE680A0020424634
:100ED00085ED060A4FEA090106EB8003D3ED000A0F
:100EE00002EB800393ED001A01EB8003401C70EECF
:100EF000C10AC0B20328C3ED000AEDD310EE100AF8
:100F0000504514DC63480A68824210DC4A68824219
:100F10000DDCD9F80810814209DC9FED5F0A00F072
:100F20008DF97F1CBFB2E8888742FFF401AFE988E2
:100F3000D4ED0C0A00EE101A2F460020B8EE400A3D
:100F400080EE801A84ED0C1A00EE101A04EB800279
:100F5000401CB8EE400AD2ED090AC0B2032880EE68
:100F6000801A82ED091A00E06AE0EDD3FFF7F0FD88
:100F7000A220FFF763FE022269462220FFF740FE0F
:100F8000FFF7DEFD9DF800009DF80110C00040EA6B
:100F90005110B0F5806F01DBA0F5006000EE100A83
:100FA000B4EE001AF8EEC00AB3EE070A00EE810AAA
:100FB00084ED060AB888401CB880B86950453FF7F0
:100FC00089AE94ED0C0ADFED350A30EE600AB0EE22
:100FD000C00A10EE100A5045F1DC2E48D9F8001076
:100FE0004A468142EBDC51688142E8DCD9F80810BE
:100FF0008142E4DC94ED090A2948B0EEC00A10EE03
:10100000101A8142DBDC94ED0A0AB0EEC00A10EE41
:10101000101A8142D3DC94ED0B0AB0EEC00A10EE38
:10102000101A8142CBDC94ED0C0ADFED1E0A80EE33
:10103000801A84ED081A09B0BDEC048BBDE8F08F6E
:10104000B0EE489AF0EE488A0020414604EB800258
:1010500092ED030A06EB800282ED000A01EB8002AA
:10106000401CC0B282ED000A0328EFD32CE7000039
:1010700070020020000020419C5A0020AC38223B26
:10108000B016CE393F161B41000020420AD7A33BC1
:10109000000000009A99193E6F12033ACDCC1C4112
:1010A0000AD7233CC3F51C4130B587B014216846EC
:1010B000FFF76EF90E48016841F480710160006825
:1010C0000C4D00F480704FF480640590002221469E
:1010D000284601F0C9F80120CDE900400220029025
:1010E000032003906946284600F0C6FF07B030BDD4
:1010F00030380240001C024009F0CCFA0F4C0025A9
:1011000005EB450004EBC00154F83020521C44F8B4
:1011100030204B689A4207D901220A7244F83030D5
:10112000C86818B1804701E0002008726D1CEDB25C
:101130000B2DE5D305200AF003FEE0E7C4070020ED
:10114000014800F007BE0000D00E0020014800F06A
:1011500001BE0000300F0020014800F0FBBD000080
:10116000100E0020014800F0F5BD0000700E0020B8
:1011700001681823CAB2103AB2FBF3F2054B6FF3C1
:101180000901032A9B5CC36500D9091D81650846D6
:101190007047000058C2000810B5014600208B6956
:1011A0008A6A4FF0C07453B1B3F5005F15D072B1C5
:1011B000012A0CD0022A0AD0032A09D104E01AB16C
:1011C000012A06D0022A03D1C96AC90100D501202B
:1011D00010BDC96AA142FAD010BD002AF7D0012A79
:1011E000F2D0022AF3D0032AF3D010BD30B5046840
:1011F000256825F480252560046863608368402B9A
:10120000036803D099600068C26030BD9A600068CE
:10121000C16030BD074808B54068009001460648E7
:101220000269914202D2C168491CC1600099016102
:1012300008BD0000001000E0C00200200A49486814
:101240000A4AD2ED000A4A68121AF8EE601A01EE54
:10125000102AB8EE411A60EE211AB4EEE11AF1EE4E
:1012600010FAF0D370470000001000E0C002002028
:1012700010B500F059F80C489FED0C1A818890EDDC
:10128000000A00EE901AC088B8EE400AF8EE600A34
:1012900000EE810A00EE900A9FED051AF8EE600A52
:1012A00000EE810A10BD0000F00200206F12833AA8
:1012B000BD37863510B500F037F80748074A016892
:1012C00051438288C08802EB4203C3EBC21201EB98
:1012D000C2010844002110BDF002002040420F006E
:1012E0000D490A6842F080720A600C4900224A6087
:1012F0000B6843F001030B6009494FF47A734843CC
:10130000B0FBF3F30749C1E90003054BB0FBF3F071
:10131000C1E9020270470000FCED00E0001000E0AF
:1013200040420F00C00200202DE9F84321484068E8
:101330000090FFF76FFF204F0024009EF8684FF0E9
:10134000FF312546E0FB0165C7E90E65D7F800804F
:101350002346424630462946FEF7D0FFA0FB083C14
:10136000C7E9060101FB08C100FB0411F61A65EB91
:101370000105C7E9086507F130080023C8F8000037
:10138000D7F8049030464A462946FEF7B7FF80B2A8
:10139000A8F8040000FB09F0301A65EB0405C7E962
:1013A0000A0529460023BA68FEF7A8FFA8F8060038
:1013B000BDE8F883001000E0C00200207047012063
:1013C00000F04EBE082000F04BBE102000F048BEDA
:1013D000202000F045BE72B6FEE790F82020012ADA
:1013E00007D0022A05D0416A41F4802141620120E0
:1013F0007047006842690A43426100207047F0B5B7
:1014000090F820500468A468012D05D0022D03D067
:10141000416A41F4802157E014F0406F01D1E500AA
:101420004FD5C4F301640125A5401D608D684FF4BC
:10143000C0739DB1CE6835434E6845EAC60506685F
:1014400003EB0417F5514FF4C275076805EB04155B
:101450000E697E51097D012905D009E00E88CD680D
:1014600045EA4655EBE701684E5946F480764E5101
:101470001179D579567941EA056195792D0445EAC6
:10148000062529434FF4C676056806EB0416A951D4
:101490001178D57841EA0561957852782D0445EAAE
:1014A000022211434FF4C475026805EB0415515133
:1014B000006803EB0411425842F001024250002040
:1014C000F0BD416A41F4001141620120F0BD00000D
:1014D00010B590F82020012A07D0022A05D0416AD1
:1014E00041F480214162012010BD3B48D0F8002228
:1014F00042F00102C0F80022D0F8002222F47C520F
:10150000C0F80022D0F800224B6A42EA0322C0F859
:1015100000220A7D02F01F0301229A40D0F81C32FB
:101520009343C0F81C32CB69B3B9D0F80C32934363
:10153000C0F80C328C894B6864F31F434C6900EB94
:10154000C404C4F840320C890B6864F31F434C692F
:1015500000EBC404C4F84432CB69012B16D1D0F897
:101560000C321343C0F80C320C884B6864F31F43F1
:101570004C6900EBC404C4F840320C89CB6864F3B6
:101580001F434C6900EBC404C4F844328B69002B40
:10159000D0F804320ED01343C0F804320B69002B8C
:1015A000D0F8143208D01343C0F81432096A012964
:1015B00004D008E09343EFE79343F5E7D0F81C121B
:1015C0001143C0F81C12D0F8001221F00101C0F83C
:1015D0000012002010BD000000640040704770B58C
:1015E00090F82040012C05D0022C03D0416A41F430
:1015F000802128E0046809B32469A40720D04FF4AF
:10160000D874056804EB01142D5915F00405956094
:1016100005682D591AD0ED08556005682C5904F05D
:101620000204D4604FF4DA74056804EB01142E59F7
:1016300006F00F06082E0CD308250DE0E468DCE761
:10164000416A41F400114162012070BD6D0D1560C9
:10165000E3E72D5905F00F05156105682D59C5F310
:101660000725956105682C59240C54614FF4DC72F0
:10167000046802EB0112A4581C700468A458240AE0
:101680005C700468A458240C9C700468A258120E64
:10169000DA704FF4DE72046802EB0112A4581C7178
:1016A0000468A458240A5C710468A458240C9C7132
:1016B0000468A258120EDA71006829B1016941F07C
:1016C00020010161002070BDC16841F02001C160AE
:1016D000F8E72DE9F05F0546006800244669D0F878
:1016E00004908768D0F80CB0D0F810A0D0F818801B
:1016F000F10748D0F90714D001218160B80703D55C
:10170000284600F0C4FA0CE0780702D54FF40064D4
:1017100007E0380702D54FF4805402E0284600F075
:10172000B5FAF80516D529684FF480708860B805B9
:1017300003D5284600F0ADFA0CE0780502D544F454
:10174000005407E0380502D544F4804402E02846FE
:1017500000F09EFAF80316D529684FF480308860AF
:10176000B80303D5284600F096FA0CE0780302D5BA
:1017700044F4004407E0380302D544F4803402E026
:10178000284600F087FA300707D55FEACB6004D51A
:101790002968102044F40074C86070074FF00807EF
:1017A00007D55FEA0B7004D52868C760284600F0AB
:1017B000A9F9B00706D52868C068800702D0284676
:1017C00000F0A2F9700607D55FEACA6004D529685F
:1017D000102044F480640861B00607D55FEA0A70FF
:1017E00004D528680761284600F0F0F9F00606D510
:1017F00028680069800702D0284600F0E9F9B003A4
:1018000008D55FEAC96005D52968102048602846D8
:1018100000F00EFAF00307D55FEA097004D52868D6
:101820004760284600F038FA300446D55FEA497030
:1018300040D5F00504D55FEAC87001D044F001043A
:10184000B00504D55FEA887001D544F00204700544
:1018500004D55FEA487001D544F00404300529D569
:1018600018F0700F26D008F07000402815D006DC64
:10187000102809D020280AD0302816D10AE0502894
:101880000ED0602811D10EE044F008040DE044F0C1
:1018900010040AE044F0200407E044F0400404E0AF
:1018A00044F0800401E044F480742868816921F0E8
:1018B00070018161296804204860002C05D0686AA5
:1018C000204368622846FFF789FEBDE8F09F70B5A7
:1018D000040003D094F8200010B104E0012070BD92
:1018E000204600F081F82068016841F001010160A4
:1018F00000F0C0FC0546052604E000F0BBFC401BE0
:101900000A2811D820684068C007F6D0206801680E
:1019100021F00201016000F0ADFC05460BE000F093
:10192000A9FC401B0A2806D9606A40F400306062B6
:1019300084F82060D2E7206840688007EFD4207EDA
:101940000128206801683DD021F080010160607E9F
:1019500001282068016838D021F040010160A07E94
:1019600001282068016833D021F020010160E07E69
:101970000128206801682ED041F010010160207F0D
:1019800001282068016829D021F008010160607FEA
:1019900001282068016824D021F004010160D4E905
:1019A00002010843D4E90412114308436168491E47
:1019B00008432168C86100206062012084F820008B
:1019C000002070BD41F08001C0E741F04001C5E753
:1019D00041F02001CAE721F01001CFE741F00801F2
:1019E000D4E741F00401D9E7F0B587B004461421EB
:1019F0006846FEF7CDFC3E4B3E48DFF8F0E0196844
:101A0000D4F800C03B4A03250226092710300024E1
:101A1000491CF4452AD11960012907D1016841F018
:101A200000710160006800F000700590106840F0DF
:101A3000080010601068CDE9005600F00800CDE9FC
:101A4000047069462C48CDE9024500F015FB0022E0
:101A50000521132000F0ACFC132000F09BFC0022B9
:101A60000521142000F0A4FC14203AE0DFF88CE0FB
:101A7000F44538D1D0F800C04CF0806CC0F800C0FC
:101A8000D0F800C001290CF0806CCDF814C01960AA
:101A900007D1016841F000710160006800F000703A
:101AA0000590106840F002001060106802AB00F072
:101AB000020005906020CDE9000683E8B000694689
:101AC0000F4800F0D9FA002205213F2000F070FCF9
:101AD0003F2000F05FFC00220521412000F068FC5F
:101AE000412000F057FC07B0F0BD0000006400404A
:101AF000E401002030380240000C02400068004041
:101B0000000402407047000000B52C4A016889B00B
:101B10001268914239D16B4602AA0021FFF75FFD9E
:101B2000002832D1029840F20322A0F20321904211
:101B300034D00BDCA0F50070013838D0012824D156
:101B400069461F4808F096FE03202DE001291ED0AB
:101B50000F291AD1BDF800009FED1A1A00EE100AE5
:101B60001948F8EE400A80EE810A80ED010ABDF8BE
:101B7000021000EE901AF8EE601AC1EE810AC0ED74
:101B8000000A20EE200A80ED020A09B000BD0C48D0
:101B90006946683008F06EFE012005E00848694695
:101BA000343008F067FE022008F06AFDEDE70448D3
:101BB0006946343808F05EFE0420F5E7200B00206B
:101BC000805C00200000C842300300207047000005
:101BD00000B5154A016889B01268914219D16B4667
:101BE00002AA0121FFF7FBFC002812D10298A0F500
:101BF0000070053813D001280DD0022804D0032826
:101C000007D16946094802E008486946343808F0B7
:101C100031FE09B000BD054869466838F7E703485A
:101C200069469C38F3E70000480B0020B85D0020AF
:101C30007047000070B5044690F82000012804D0D9
:101C4000606A40F40020606218E0022084F82000FE
:101C50002068016821F00101016000F00BFB0546DE
:101C60000EE000BF00F006FB401B0A2808D9606A9E
:101C700040F400306062052084F82000012070BD2F
:101C800020684068C007EDD1606270BD7047704742
:101C9000704770477047704770472DE9F041044620
:101CA000876D00F0E7FA064694F835000025022813
:101CB00006D08020606584F834500120BDE8F081B2
:101CC0002068016821F0160101602068416921F057
:101CD00080014161206C08B9A06C20B120680168C6
:101CE00021F0080101602068016821F00101016014
:101CF0000CE000F0BFFA801B052807D920206065A2
:101D0000032084F8350084F83450D7E72068006851
:101D1000C007EED194F85C103F208840B8600120E5
:101D200084F8350084F834500020C7E790F8351067
:101D3000022903D08021416501207047052180F8E8
:101D400035100068016821F0010101600020704732
:101D5000406D70472DE9F84304464FF00009CDF877
:101D6000009063484FF41651A56D0068B0FBF1F781
:101D70002E6894F85C10082000FA01F131420FD06F
:101D800021680A6852070BD50A6822F004020A602B
:101D900094F85C108840A860606D40F001006065B8
:101DA00094F85C104FF0010808FA01F0304208D0B6
:101DB00021684969090604D5A860606D40F00200F9
:101DC000606594F85C1004208840304208D0216897
:101DD0000968890704D5A860606D40F0040060655B
:101DE00094F85C1010208840304218D021680968AF
:101DF000090714D5A86020680168490304D5006864
:101E0000000308D5A16C07E00168C90503D4016887
:101E100021F008010160216C09B12046884794F83F
:101E20005C1020208840304231D021680968C90602
:101E30002DD5A86094F8350005282068016806D0E3
:101E4000490347D5006800031DD4616C1CE021F0F4
:101E5000160101602068416921F080014161206C18
:101E600008B9A06C20B12068016821F00801016068
:101E700094F85C103F208840A86084F8358084F88E
:101E80003490216D1FE0E16B09B120468847606DF9
:101E900000282BD0606DC00714D0052084F83500D1
:101EA0002068016821F0010101600098401C009049
:101EB000B84203D820680068C007F6D184F835809E
:101EC00084F83490E16C002910D001B02046BDE8C0
:101ED000F04308470168C905D5D4016821F0100115
:101EE000016084F8358084F83490CCE7BDE8F8834D
:101EF000000200202DE9F041044600F0BBF906463F
:101F00005CB1022084F83500002584F83450206844
:101F1000016821F0010101600DE00120BDE8F081C0
:101F200000F0A8F9801B052805D920206065032052
:101F300084F83500F2E720680068C007F0D1226815
:101F4000116820480140D4E901031843D4E903365D
:101F50003343184363691843A3691843E36918437B
:101F6000236A18430843616A042903D1D4E90B1397
:101F700019430843106020684069666A20F0070131
:101F800030460E43012704280CD1A06A0643E06ABC
:101F900040B12046FFF700F920B14020606584F889
:101FA0003570BAE7206846612046FFF7E1F894F8FB
:101FB0005C203F2191408160656584F83570002088
:101FC000ACE700003F8010F02DE9F0410446866D3B
:101FD00090F83400002501280DD0012084F8340049
:101FE00094F835700020012F07D084F834000225C2
:101FF0002846BDE8F0810220FBE7022784F835700F
:1020000060652046FFF7F2F894F85C103F208840A6
:10201000B0602068016841F016010160206C20B1B9
:102020002068016841F0080101602068016841F002
:1020300001010160DCE7000070B5044600F01AF908
:102040000546601C02D004480078044400F012F9F0
:10205000401BA042FAD370BDF4010020704700007D
:10206000044910B50A68024202D00860FFF7F6FF83
:1020700010BD0000143C01402DE9F84FDFF8BCA171
:102080000022012503264FF00F090AF1040BAAF1E3
:10209000040E00BF0B6805FA02F42340A34270D17E
:1020A0000F7907F00307012F01D0022F16D187689F
:1020B0004FEA420806FA08FC27EA0C07D1F80CC0E0
:1020C0000CFA08FC4CEA070CC0F808C04768A743A4
:1020D0000C79C4F3001494403C4344600C79E4430D
:1020E000A4070AD0C4684FEA420C06FA0CF7BC43B6
:1020F0008F6807FA0CF72743C7600C7904F00304D4
:10210000022C12D1D40800EB840CDCF820405707D5
:10211000FF0E09FA07F824EA0804D1F8108008FA3B
:1021200007F848EA0408CCF8208004684FEA420C1B
:1021300006FA0CF7BC430F7907F0030707FA0CF710
:10214000274307604C6814F4403F70D03C4C27682C
:1021500047F480472760246822F0030704F4804492
:102160000094384C07EB040CDCF8084897074FEA5A
:10217000177809FA08F7BC43334FB84202D1002759
:1021800024E054E0314FB84201D101271EE0304F26
:10219000B84201D1022719E02E4FB84201D10327DE
:1021A00014E02D4FB84201D104270FE02B4FB84265
:1021B00001D105270AE02A4FB84201D1062705E0E0
:1021C000284FB84201D1072700E0082707FA08F78F
:1021D0002743CCF80878DAF800405746D1F804C015
:1021E0009C435FEACC2C00D51C433C60DBF80040EC
:1021F0005F46D1F804C09C435FEA8C2C00D51C4399
:102200003C60DEF800407746D1F804C09C435FEAAA
:102210008C3C00D51C433C60084F083F3C68D1F81B
:1022200004C09C435FEACC3C00D51C433C60521C7C
:10223000102AFFF42FAFBDE8F88F0000083C0140E2
:1022400044380240003001400000024000040240D7
:1022500000080240000C024000100240001402403E
:1022600000180240001C02400AB181617047090455
:10227000FBE700000148806870470000F40100207F
:10228000024881680278114481607047F40100209F
:102290000B4810B5016841F400710160016841F418
:1022A00080610160016841F480710160032000F0E9
:1022B0009FF80F2000F006F800F050F8002010BD45
:1022C000003C024030B50546204887B00024016834
:1022D00041F001010160006806A900F001000090D2
:1022E00001A800F0CBFD0498B0B100F0EDFD400076
:1022F00017494FF08042B0FBF1F11648491E0260C9
:1023000040F2E732C0E90324C0E90114846101F01E
:10231000B3FA040003D015E000F0D6FDE8E70D485D
:1023200001F0ECFA04000DD11C2000F033F8102D60
:1023300007D2002229461C2000F03AF80648056022
:1023400000E0012407B0204630BD000040380240C4
:1023500040420F00900F0020F80100200C4882B08E
:10236000016841F480410160006800F48040009001
:102370000748001F016841F0805101600068002299
:1023800000F0805000900F21901E02B000F010B8B5
:1023900044380240002809DB00F01F02012191406F
:1023A0004009800000F1E020C0F8001170470000F3
:1023B000F0B40E4B1B680C46C3F30223C3F10705B0
:1023C000042D00D90425191D072901D2002300E09E
:1023D000DB1E012606FA05F1491E214099409E4068
:1023E000761E16403143F0BC04F0EABB0CED00E071
:1023F000064900F0070208684FF6FF03184040EA5C
:102400000220034A10430860704700000CED00E012
:102410000000FA057047D0F8E00403F019BD01EBA5
:10242000C10200EB8202D0F8E004126A03F06EBC35
:1024300001EBC10200EB8202D0F8E004D2F8602286
:1024400003F0BFBCD0F8E00403F004BD0A0601F0BD
:102450000F0101EBC10100EB810101D5143101E055
:1024600001F51571006804F0D7B970B5044601F0A4
:102470000F002279904201D9012070BD0B0601F0B6
:102480000F0101EBC10104EB81014FF001024FF09C
:10249000000502D54A75143103E081F8555201F563
:1024A00015718D70087094F89404012808D084F890
:1024B0009424206804F040F884F89454002070BDFF
:1024C000022070BD2DE9F04104460F0601F00F0017
:1024D00000EBC00104EB81014FF001064FF0000555
:1024E00002D54E75143103E081F8555201F515718E
:1024F00008708A600B714A7802B14883022B00D1C0
:102500004D7194F89404012809D084F894642068EB
:1025100003F098FF284684F89454BDE8F081022027
:10252000FBE710B501F00F0404EBC40100EB8101DF
:10253000C1E998230023C1F8683281F8553281F847
:102540005442837901F51571012B00D1CA6182795A
:10255000006804F049F8002010BD70B504460D462F
:1025600001F00F002179884201D9012070BD2906B0
:102570004FF000064FF0010206D500EBC00104EB5E
:1025800081014A75143107E005EBC50104EB8101B7
:1025900081F8556201F515718A70087094F89404F9
:1025A000012807D084F89424206803F0F1FF28075D
:1025B00002D007E0022070BDA17904F29C4220689D
:1025C00003F08EFF84F89464002070BD10B501F014
:1025D0000F0404EBC40100EB8101C1E908230023CF
:1025E0008B6201234B7501F8144F8379012B00D1C5
:1025F000CA618279006803F0F7FF002010BD000077
:102600002DE9FC5F05680446284604F07FF90028A0
:102610007DD1206804F0A6F9002878D0D5F8080804
:10262000C0F30D20C4F8D404206804F09BF980079F
:1026300004D52068416901F002014161206804F07D
:1026400091F9C10604F29C40009034D5206881695C
:1026500021F0100181612F6A07F00F0000EBC0002C
:1026600004EB8006C7F3434006F51576022802D036
:10267000062811D01AE047F6F070074216D0C7F3CB
:102680000A1217462846F16804F070F9F0683844D9
:10269000F0607069384408E008222846009904F088
:1026A00065F97069C7F30A1108447061206881698F
:1026B00041F010018161206804F054F900034FF0EB
:1026C000080B4FF0000A4FF001097CD50026206866
:1026D00004F027F9074674E0F80770D0F1B22068DB
:1026E00004F038F98046C00707D005EB4611C1F861
:1026F000089B3146204602F081FB5FEA087024D532
:1027000005EB4611C1F808BB2068016C00E023E22C
:1027100000EB46100191D0F8082BFB4B994205D9EC
:10272000110403D54FF40041C0F8081B204600F007
:102730004EFAF5490198884207D9A079012804D1B9
:1027400020680121009A03F0CBFE5FEAC86004D53F
:1027500005EB46111020C1F8080B5FEA88701DD503
:102760006869000605D5D5F8040840F48061C5F80D
:10277000041806EBC60004EB800090F8571200F531
:102780001570012905D180F803A0F1B2204600F0B0
:10279000E9F905EB46110220C1F8080B5FEA8860F1
:1027A00004D505EB46102021C0F8081B5FEA8840DD
:1027B00005D505EB46104FF40051C0F8081B7F0803
:1027C000761C002F88D1206804F0CCF840036ED529
:1027D000206804F09FF80746002666E0F80762D0FC
:1027E000F1B2206804F0A4F88046C00723D006F0B8
:1027F0000F01D5F8342809FA01F18A43C5F83428C5
:1028000005EB4611C1F80899A07901280FD106EB14
:10281000C60004EB8000D0E907211144016236B9FB
:10282000606A20B920680121009A03F059FEF1B2D4
:102830002046FFF7F4FD5FEA087003D505EB46116B
:10284000C1F808B95FEAC86004D505EB461110204D
:10285000C1F808095FEA486004D505EB461040213D
:10286000C0F808195FEA887016D53146284604F08A
:1028700022F806EBC60004EB8000C17D143001296C
:1028800005D180F803A0F1B2204600F067F905EB0E
:1028900046110220C1F808095FEA086003D53146F5
:1028A000204602F011FB7F08761C002F96D120688D
:1028B00004F058F8002811DAD5F8040820F00101D6
:1028C000C5F8041894F8CC0401282BD0204600F059
:1028D00063F92068416901F000414161206804F01A
:1028E00041F800050BD5D5F80808C00702D02046EE
:1028F00000F074F92068416901F4006141612068C9
:1029000004F030F8C00467D5D5F8040820F00100C1
:10291000C5F804081021206803F0CDFF00214FF610
:102920007F3220E084F8CCA400212046FFF772FD1E
:10293000CFE700BF05EB4110C0F80829D0F80039F7
:1029400023F40013C0F80039C0F8082BD0F8003B7E
:1029500023F40013C0F8003BD0F8003B43F00063C1
:10296000C0F8003B491C20798842E3D8D5F81C0800
:1029700040F00111C5F81C18E07B002828460DD056
:10298000D0F8840840F00B01C5F88418D5F8440845
:1029900040F00B012846C5F844180DE0D0F81408A3
:1029A00042F22B010843C5F81408D5F8100840F08E
:1029B0000B012846C5F81018D0F8000820F4FE6175
:1029C000C5F80018A1792068009A03F089FD2068F5
:1029D000416901F480514161206803F0C3FF800424
:1029E00015D5206803F06EFD206803F082FFE071CA
:1029F00000F064FA0146E279206803F0E7FF204620
:102A000000F0B4F82068416901F400514161206888
:102A100003F0A8FF000707D5204600F0C1F82068A2
:102A2000416901F008014161206803F09BFF000645
:102A300016D5A86920F08001A96101260DE000BF2C
:102A400006EBC60004EB800090F85702012803D182
:102A5000F1B22046FFF7FAFC761C2079B042EFD89D
:102A6000206803F07FFFC0021FD501264F4614E007
:102A700005EB4610D0F8001906EBC60004EB800207
:102A8000107E012808D1002906DAF0B240F080015A
:102A9000D7752046FFF7DAFC761C2079B042E7D8DC
:102AA0002068416901F480114161206803F05AFFF8
:102AB000800234D501204A4629E000BF05EB4011D1
:102AC000D1F8001B00EBC00304EB830393F85862BA
:102AD000012E1BD1002919DA94F8D46401F4803155
:102AE00006F00106B14211D183F85722A96941F0DD
:102AF0008003AB616969090608D4D5F8040840F47D
:102B00000070C5F8040805E00A30544F401C2179D4
:102B10008142D3D82068416901F4001141612068E5
:102B200003F020FF400007D52046FFF774FC206823
:102B3000416901F080414161206803F013FF4007C3
:102B40000AD520684568680702D52046FFF77AFC59
:102B50002068416829434160BDE8FC9FD0F8E0044B
:102B600003F096B9D0F8E00403F0A6B970B50446B6
:102B7000C079012570B1022801D0FEF72CFC29464E
:102B8000D4F8E00403F006FAD4F8E004BDE870409D
:102B900003F0BBB90025F2E7D0F8E00403F0E3B995
:102BA000D0F8E00403F0E9B910B5044690F89404B5
:102BB00001280AD0012084F894046174206803F08D
:102BC000F4FE002084F8940410BD022010BDD0F85B
:102BD000E02400F29C41104603F0E8B910B5044629
:102BE000D0F8E00403F01BFA2068D0F8001E41F092
:102BF0000101C0F8001EE07A002804D002480168F4
:102C000041F00601016010BD10ED00E02DE9F84330
:102C1000054600684FF00109C1074FF0000601D1D9
:102C2000400727D5DFF80C81C8F86860FFF722FB62
:102C30000746414C05E000BFFFF71CFBC01B022804
:102C400057D820680001F7D468688101287A41EAE2
:102C50000070394984310860C8F86890FFF70AFBB2
:102C6000074604E0FFF706FBC01B022841D8206896
:102C70000001F7D52878800752D52F4840300168E9
:102C800041F08051016000682C4C00F080500090B1
:102C9000206840F480702060FFF7ECFA074604E0FB
:102CA000FFF7E8FAC01B022823D82068C005F7D533
:102CB000214C7034206810F4407020D0A98901F4B0
:102CC000407181421BD020681D4920F44070C1F83A
:102CD00000900E6020602068C00710D0FFF7CAFA8D
:102CE000064641F2883707E0FFF7C4FA801BB84276
:102CF00002D90320BDE8F88320688007F4D5E9688D
:102D00000D48C1F301220830032A0BD0016821F4D9
:102D1000F81101602068A989C1F30B010843206004
:102D20000020E7E70268074B22F4F81219400A4333
:102D30000260EFE7000047420038024000700040A8
:102D4000400E4742FFFCFF0F2DE9F0470E460500FD
:102D500065D0DFF81481D8F80000F7B200F0070062
:102D6000B04207D288F80070D8F8000000F00700E1
:102D7000B04254D128683D4C810712D5400703D595
:102D8000206840F4E05020602878000703D52068D0
:102D900040F4604020602068A96820F0F0000843FB
:102DA00020602878C0072DD030496868083901288C
:102DB00012D0022813D0032811D0096889070029EE
:102DC0002DDA216821F0030101432160FFF752FA57
:102DD000814641F2883A0EE009688903EFE7096805
:102DE0008901ECE7FFF746FAA0EB0901514502D94A
:102DF0000320BDE8F0872068696800F00C00B0EBA4
:102E0000810FEFD1D8F80010404601F00701B14220
:102E100007D90770006800F00700B04201D0012018
:102E2000E7E72878400705D52068E96820F4E050F6
:102E3000084320602878000706D52068296920F417
:102E4000604040EAC100206000F05EF82168084A56
:102E5000C1F30311515CC840064908600648006888
:102E6000FFF730FA0020C4E7003C02400838024077
:102E700060C2000800020020F80100200F2202605A
:102E80000C4A136803F003034360136803F0F00374
:102E90008360136803F4E053C36012684FF4E05397
:102EA00003EAD20202610448006800F007000860EB
:102EB0007047000008380240003C024001480068AA
:102EC00070470000000200200448054900680968B6
:102ED000044AC1F38221515CC840704700020020BF
:102EE0000838024070C200080448054900680968B3
:102EF000044AC1F34231515CC840704700020020CF
:102F00000838024070C20008154810B5006810F07B
:102F10000C02144813D01449042A0FD0082A0ED1E9
:102F20000F4C241F2268236802F03F025B0207D582
:102F30002068C0F38810A0FB010106E0084610BD20
:102F40002168C1F38811A1FB00010023FDF7D6F928
:102F50002168C1F30141491C4900B0FBF1F010BDEB
:102F6000083802400024F400001BB7002DE9F84F98
:102F700004006ED02078DFF84C93C007A9F1040557
:102F80004AD009F104000168C1F38101012908D088
:102F90000068C0F3810002280AD1D9F8000040027D
:102FA00006D52868800337D560680028E1D033E073
:102FB0006068B0F5803F10D0B0F5A02F286810D021
:102FC00020F480302860286820F480202860606821
:102FD000A8B1FFF74FF906460DE0286840F48030AD
:102FE000F4E740F480202860F7E700BFFFF742F9DC
:102FF000801B642873D828688003F7D50CE0FFF79E
:1030000039F9064605E000BFFFF734F9801B642854
:10301000F0D828688003F7D42078DFF8AC828007E6
:103020004FF0000A3ED5A748001D016811F00C0FB3
:1030300008D00068C0F3810002280BD1D9F8000045
:10304000400207D42868800716D5E068012800D11F
:1030500012E033E1E068B8B10120C8F80000FFF7E2
:1030600009F9064605E000BFFFF704F9801B0228B6
:10307000C0D828688007F7D52868216920F0F800B3
:1030800040EAC10028600DE0C8F800A0FFF7F2F8A0
:10309000064604E0FFF7EEF8801B02281FD82868D8
:1030A0008007F7D42078000722D5864F87486169CA
:1030B000703771B101210160FFF7DCF8064604E0CA
:1030C000FFF7D8F8801B022809D838688007F7D5A1
:1030D0000EE0C0F800A0FFF7CDF8064605E082E05C
:1030E000FFF7C8F8801B02287DD838688007F7D41E
:1030F0002078400768D5DFF8CCB100270BF13C0BF6
:10310000DBF80000C0000BD4DBF8001041F0805168
:10311000CBF80010DBF80000012700F08050009091
:103120006B4E3068C00510D4306840F48070306059
:10313000FFF7A0F8009005E0FFF79CF80099401A0F
:10314000022850D83068C005F6D55E4EA0686C36AF
:1031500001280FD00528306810D020F00100306021
:10316000306820F004003060A068B8B1FFF782F842
:1031700000900FE0306840F00100F4E740F00400F8
:103180003060F7E7FFF776F80099411A41F288308E
:10319000814266D830688007F4D50EE0FFF76AF800
:1031A000009007E0FFF766F80099411A41F2883075
:1031B000814256D830688007F4D42FB1DBF8001074
:1031C00021F08051CBF80010A069C8B33D49091D1A
:1031D0000968C1F3810102294AD00228504607D06C
:1031E000C8F8600000E03CE0FFF744F804463BE02C
:1031F0004746C8F86000FFF73DF8064605E000BF07
:10320000FFF738F8801B02282BD828688001F7D4F4
:10321000D4E907010843A16A2E4A490802EB01419B
:10322000626A41EA8211084394F82C1040EA016175
:10323000C9F8001001203866FFF71CF8044606E0C4
:103240003EE000BFFFF716F8001B022809D82868E7
:103250008001F7D534E000BFFFF70CF8001B02280F
:1032600002D90320BDE8F88F28688001F4D427E054
:103270000128F7D0D9F80000E26900F480019142FA
:103280001CD1226A00F03F01914217D147F6C0716C
:10329000626A0140B1EB821F10D1A26A4FF0FF3386
:1032A00000F4403103EB5202B1EB024F06D194F827
:1032B0002C1000F07060B0EB016F01D00120D1E75D
:1032C0000020CFE70438024000004742800E47420A
:1032D000007000400000FFFF10B5040002D0607FC6
:1032E00010B106E0012010BD00202077204600F03C
:1032F00041F8022060772068C168C943C90632D509
:10330000CA214162216853204862204601F02EFE06
:1033100020BB20688168164A114081602168886856
:1033200062681043D4E904231A431043886021687B
:10333000E068086120680169228941EA024101616F
:10334000204601F037FE48B921680A6C22F4802239
:103350000A6421680A6CA3691A430A642268FF217F
:10336000516208B110BD00200121617710BD00003D
:10337000BFFF8FFF1FB500210091019102910391C2
:103380000068084988420CD102200090064803904A
:103390006846FFF73BFC08B1FEF71DF80349012022
:1033A00008601FBD0028004000031E003C0E47427D
:1033B00070B504460B482168C860FEF75BFF054600
:1033C0004FF47A7607E000BFFEF754FF401BB0428F
:1033D00001D9032070BD2068C0688006F4D50020A4
:1033E00070BD00005F7F010070B5040009D0606A05
:1033F000002540B125616561A56294F8510040B196
:103400000CE0012070BD6068B0F5827FF4D0E5610A
:10341000F2E784F85050204600F044F8022084F887
:1034200051002068016821F040010160A0882189D5
:1034300000F4827001F404410843A18901F40061A1
:103440000843217C01F002010843217D01F00101C4
:103450000843218B01F400710843217F01F03801FA
:10346000084394F8201001F080010843218D01F4F5
:103470000051084321680860A069042101EA104056
:1034800094F8241001F01001084321684860206876
:10349000C16921F40061C1616565012084F85100B2
:1034A000002070BD2DE9F04387B006461421684620
:1034B000FCF76EFF34493068884261D133480025FB
:1034C000016841F480510160006800F4805005906B
:1034D0002E481438016841F002010160016801F0D2
:1034E00002010591016841F00101016000680224B8
:1034F00000F001000590182001274FF003084FF05D
:1035000005098DE8910369462148FEF7B5FD802045
:103510008DE8910369461F48FEF7AEFD1F4C1E481B
:103520004FF0C0672060C4E901754FF48068C4E9BA
:10353000035865617812A561C4E9075020466562A9
:10354000FEF7D8FC08B1FDF746FFF464A663134C00
:10355000114860341830E4E802074020A4E8210153
:10356000C00244F81459A561C4E907500B486562CC
:103570006030FEF7BFFC08B1FDF72DFFB464A66311
:1035800007B0BDE8F083000000300140443802403D
:10359000000402400000024040640240E80B0020AA
:1035A0002DE9FF4F81B0044690F8500000260E9F91
:1035B0001D4693464FF0010901280FD04FF0010A34
:1035C00084F850A0FEF756FE804694F851006168DA
:1035D00001280DD0B1F5827F08D103E0022005B0AB
:1035E000BDE8F08FA16809B9042801D00226C9E01E
:1035F0000298002865D0BBF1000FFBD0002DF9D058
:1036000094F85100042802D0052084F851000020CD
:103610006065C4F838B0E587A58702992163E5861F
:10362000A5862064606420680168490603D40168A7
:1036300041F040010160E068B0F5006F606803D0C0
:10364000F0B3012D47D081E008B1012D3CD1206BB2
:1036500021680088C860206B801C2063E08E401EBB
:10366000E08631E02068816889070FD5E18E69B175
:10367000B9F1010F0AD1216B0988C160206B801C50
:103680002063E08E401EE0864FF0000920688168CC
:10369000C9070CD0E18F51B1C068A16B0880A06B45
:1036A000801CA063E08F401EE0874FF00109FEF709
:1036B000E1FDA0EB0800B84206D3781C04D001E07D
:1036C00009E05BE003265BE0E08E0028CAD1E08FD2
:1036D0000028C7D140E0206B216800780873206B78
:1036E000401C2063E08E401EE0862FE02068816849
:1036F00089070FD5E18E69B1B9F1010F0AD1216BAC
:1037000009780173206B401C2063E08E401EE08628
:103710004FF0000920688168C9070CD0E18F51B1D2
:10372000C068A16B0870A06B401CA063E08F401EB6
:10373000E0874FF00109FEF79DFDA0EB0800B842BD
:1037400002D3781C02D0BAE7002FB8D0E08E002850
:10375000CCD1E08F0028C9D142463946204601F03D
:10376000EFFC18B10126202060650BE0A06818B9B5
:103770002068C16880680090606D08B1012601E092
:1037800084F851A0002084F85000304627E77047A5
:10379000704710B590F83C20012A22D0012280F811
:1037A0003C20CA688C6822F4407222434C6822F4A0
:1037B000806222430C6822F4006222430C6922F4E6
:1037C000805222434C6922F400522243C9690023EB
:1037D00022F480420A4301684A6480F83C300020A9
:1037E00010BD022010BD000070B590F83C20012AE9
:1037F00032D0012480F83C40022280F83D2003684A
:103800005A689D6822F070060A6832435A60134B6A
:1038100002689A4214D0B2F1804F11D0104B9A42F4
:103820000ED0104B9A420BD00F4B9A4208D00F4B40
:103830009A4205D00E4B9A4202D00E4B9A4204D1C6
:10384000496825F080031943916080F83D400021CC
:1038500080F83C10084670BD022070BD0000014099
:103860000004004000080040000C0040000401403B
:10387000004001400018004010B5040003D094F847
:103880003D0010B107E0012010BD002084F83C008D
:10389000204600F01FF8022084F83D00211D20681A
:1038A00001F080FD012084F8460084F83E0084F891
:1038B0003F0084F8400084F8410084F8420084F816
:1038C000430084F8440084F8450084F83D0000205B
:1038D00010BD000008B500680649884208D10648B6
:1038E000016841F400310160006800F4003000908C
:1038F00008BD0000004401404438024090F83D10EB
:10390000012901D001207047022180F83D10016893
:10391000CA6842F00102CA6000681149884214D0A6
:10392000B0F1804F11D00F4988420ED00E49884225
:103930000BD00E49884208D00D49884205D00D4968
:10394000884202D00C49884204D1816801F0070105
:10395000062903D0016841F0010101600020704791
:10396000000001400004004000080040000C00403E
:1039700000040140004001400018004070472DE95C
:10398000F04104460068C66805694FF00007A907C2
:1039900013D5B10711D5F91E0161012020772068E8
:1039A00080698007204602D0FFF7E8FF04E000F0BE
:1039B000C3F8204600F068F92777680716D5700726
:1039C00014D521686FF00400086102202077206878
:1039D000806910F4407F204602D0FFF7CFFF04E05B
:1039E00000F0AAF8204600F04FF92777280715D5F0
:1039F000300713D521686FF0080008610420207794
:103A00002068C0698007204602D0FFF7B7FF04E0B6
:103A100000F092F8204600F037F92777E80616D52F
:103A2000F00614D521686FF0100008610820207797
:103A30002068C06910F4407F204602D0FFF79EFF47
:103A400004E000F079F8204600F01EF92777E80737
:103A500008D0F00706D021686FF001000861204609
:103A600000F013F9280608D5300606D521686FF056
:103A7000800008612046FFF78AFE680608D57006B8
:103A800006D521686FF040000861204600F004F977
:103A9000A8060AD5B00608D521686FF02000086195
:103AA0002046BDE8F041FFF773BEBDE8F08100009D
:103AB00010B586B0044614216846FCF769FC2368FB
:103AC000184C002118480222A34212D1036843F087
:103AD00010030360006800F0100005904FF42060B0
:103AE0000090CDE901210120CDE9031069460F487E
:103AF00013E00F4CA34212D1036843F0200303608C
:103B0000006800F02000059040200090CDE90121E0
:103B10000320CDE9031069460648FEF7ADFA06B06A
:103B200010BD00000000014030380240001002408B
:103B30000044014000140240704770B5044690F8FC
:103B40003C0000260D4601280FD0012084F83C00DF
:103B50006AB1042A1DD0082A2FD00C2A3FD0012692
:103B6000002084F83C00304670BD022070BD206803
:103B700001F084FC2068816941F0080181612068BE
:103B8000816921F004018161206881692A691143FA
:103B900011E0206801F0A2FC2068816941F4006115
:103BA00081612068816921F4806181612068816977
:103BB0002A6941EA02218161D2E7206801F0C4FC50
:103BC0002068C16941F00801C1612068C16921F024
:103BD0000401C1612068C1692A69114311E02068AC
:103BE00001F0E6FC2068C16941F40061C161206810
:103BF000C16921F48061C1612068C1692A6941EA13
:103C00000221C161ACE710B5040003D094F83D0077
:103C100010B107E0012010BD002084F83C002046D0
:103C200000F01EF8022084F83D00211D206801F0FC
:103C3000B9FB012084F8460084F83E0084F83F0078
:103C400084F8400084F8410084F8420084F843007E
:103C500084F8440084F8450084F83D00002010BD3D
:103C600008B500680649884208D10648016841F055
:103C700001010160006800F00100009008BD000033
:103C8000000001404438024070470068B0F1804FA6
:103C900001D1FEF7F5BA70477047704770B504461A
:103CA00020680C3050E8001F21F4907140E80012A9
:103CB000002AF5D12068143050E8001F21F00101DE
:103CC00040E80012002AF5D1206B012809D12068B4
:103CD0000C3050E8001F21F0100140E80012002ACB
:103CE000F5D1206840694FF00005400615D52068E1
:103CF000143050E8001F21F0400140E80012002A73
:103D0000F5D1E06B48B10565E06BFDF7C6FF20B16A
:103D1000E06BFEF71DF8202806D0E585202084F80A
:103D200042002563002070BD10206064032070BD38
:103D300070470000F8B5016804460868CA684B6916
:103D400010F00F0F4FF0000559D003F0010602F4F8
:103D50009077374365D0C10705D0D10503D5616C95
:103D600041F001016164410705D5D90703D0616CB9
:103D700041F002016164810705D5D90703D0616C68
:103D800041F004016164010707D502F020013143CD
:103D900003D0616C41F008016164616C00293AD084
:103DA000800604D5900602D5204601F0DDFC20688F
:103DB0004069616CC0F38010090700D460B32046ED
:103DC00001F09DFC20684069400621D52068143030
:103DD00050E8001F21F0400140E80012002AF5D110
:103DE000E06BA8B16E490165E06BFDF79FFF00280D
:103DF00011D0E06B016D01B0BDE8F04008478306CB
:103E00000FD593060DD52046BDE8F84001F0ACBCB7
:103E10002046FFF78DFFF8BD2046FFF789FF656458
:103E2000F8BD266B2023012E7DD1C6067BD5D60694
:103E300079D508684868009048694FF00206400646
:103E400041D5E16B086840680004000CE8D0A28D01
:103E50008242E5D9E085C869B0F5807F2DD0206821
:103E60000C3050E8001F21F4807140E80012002A55
:103E7000F5D12068143050E8001F21F0010140E81E
:103E80000012002AF5D12068143050E8001F21F0FC
:103E9000400140E80012002AF5D184F84230256341
:103EA00020680C3050E8001F21F0100140E800129B
:103EB000002AF5D1E06BFDF7F0FE6663A08DE18D81
:103EC000401A81B22AE0A08DE18D401A81B2E08DC6
:103ED0000028A5D00029A3D022680C3252E8000F98
:103EE00020F4907042E80007002FF5D120681430CC
:103EF00050E8002F22F0010240E80027002FF5D102
:103F000084F84230256320680C3050E8002F22F0FE
:103F1000100240E80023002BF5D166632046FFF72E
:103F2000BCFEF8BDFFE705062BD5150629D594F88C
:103F300041002128F5D1A068B0F5805F01D120694A
:103F4000B0B1206A411C2162216800784860E08C91
:103F5000401E0004000CE084E3D12068C16821F019
:103F60008001C1602068C16841F04001C160D8E7AC
:103F7000206A0088C0F308004860206A801C206224
:103F8000E5E74006CDD55006CBD5CA68204622F0DD
:103F90004002CA6084F8413000F0B0F9C1E7000087
:103FA0000156000870B5040004D094F841000025C3
:103FB00010B106E0012070BD84F84050204600F0AA
:103FC00023F8242084F841002068C16821F40051BE
:103FD000C160204601F02AFC2068016921F490416B
:103FE00001612068416921F02A0141612068C168AE
:103FF00041F40051C1606564202084F8410084F8D8
:1040000042006563002070BD2DE9F04786B004468C
:1040100014216846FCF7BCF97D48DFF8F0811438BC
:10402000D4F800C07A4B0227032107220025061589
:104030004FF0006AC44566D1D3F800C04CF0100CB4
:10404000C3F800C01B6803F010030593036843F036
:1040500002030360036803F002030593036843F05F
:10406000010303600068894600F00100059080208C
:10407000CDE90007CDE902599046694604926548AA
:10408000FDF7FAFF7010CDE90007CDE90259694646
:10409000CDF810806048FDF7EFFF614F5F48D046D4
:1040A0003860C7E901A5C7E903567D614FF4403088
:1040B000BD61C7E9075038467D62FDF71BFF08B1B7
:1040C000FDF789F9E763BC63554F544860373030DA
:1040D000E7E80208402061C7800247F81459BD6133
:1040E000C7E907504E487D626030FDF703FF08B115
:1040F000FDF771F9A763002205212520BC63FEF7B7
:1041000057F925203EE0DFF81C81C4453FD1404BE4
:104110001B1FD3F800C04CF4802CC3F800C01B68F0
:1041200003F480230593036843F0040303600068ED
:10413000029500F004000590CDE903124FF44060B1
:10414000CDE9000769463848FDF796FF344F3748F8
:10415000C0373860C7E901A5C7E9035680157D61FE
:10416000C7E906503D6238467D62FDF7C3FE08B1DF
:10417000FDF731F9E763002205212720BC63FEF734
:1041800017F92720FEF706F906B0BDE8F087284AA0
:104190009445F9D11A6842F020021A601A6802F0B8
:1041A00020020592026842F0400202600068029517
:1041B00000F0400005904FF48440CDE9000708204E
:1041C000CDE9031069461B48FDF756FF13481A4F07
:1041D000603838608005C7E90105C7E903567D618D
:1041E0004FF40030BD61C7E9075038467D62FDF7E6
:1041F00081FE08B1FDF7EFF8E763002207214720B1
:10420000BC63FEF7D5F84720BCE700000010014072
:10421000443802400004024000000240886402402A
:10422000100E0020004800400008024028600240B4
:104230000014014000180240300F002090F8423076
:10424000202B01D00220704721B11AB10023036353
:1042500001F072BB01207047704770472DE9F843A9
:10426000044690F84100984616460D46202802D094
:104270000220BDE8F88385B17EB100206064212072
:1042800084F84100FDF7F6FFA6848146E684A06825
:104290002027B0F5805F02D003E00120E9E7206924
:1042A00010B12E4600250EE000260CE080212046AD
:1042B00001F08AFBA8B9C6B116F8010B2168486065
:1042C000E08C401EE084E08C4B464FF00002CDF8BD
:1042D00000800028EAD14FF04001204601F074FB35
:1042E00040B184F841700320C3E735F8020BC0F3F6
:1042F0000800E3E784F841700020BAE77047FEE762
:1043000009480A49037F012B02D000220A6207E014
:104310000A6A521C0A620C2A01DA012200E0022217
:1043200082774B6270470000A45B002008030020E6
:104330000F4810B50D4901600321416000214FF481
:1043400010228160C0E903124FF40012426101762D
:1043500041768176C17601774177FDF7B8FA00287A
:1043600003D0BDE81040FDF736B810BD0064004032
:10437000200B00200F4810B50D490160032141605A
:1043800000214FF410228160C0E903124FF40012A3
:104390004261017641768176C17601774177FDF7FA
:1043A00096FA002803D0BDE81040FDF714B810BD00
:1043B00000680040480B0020214808B5016841F41E
:1043C00080010160016801F480010091016841F4FD
:1043D000001101600068002200F400100090052127
:1043E0000C20FDF7E5FF0C20FDF7D4FF002205218E
:1043F0003920FDF7DDFF3920FDF7CCFF0022052134
:104400003A20FDF7D5FF3A20FDF7C4FF0022052131
:104410003B20FDF7CDFF3B20FDF7BCFF002205212F
:104420004420FDF7C5FF4420FDF7B4FF002205211D
:104430004620FDF7BDFFBDE808404620FDF7AABFB6
:104440003038024010B5AAB01C2221496846FBF75B
:1044500086FF0021684606F0CFFA1E4C1C491C223C
:1044600020601C3107A8FBF77AFF002107A806F09F
:10447000C3FA174960601C2238310EA8FBF76FFFA2
:1044800000210EA806F0B8FA1149A0601C22543190
:1044900015A8FBF764FF002115A806F0ADFA0C493A
:1044A000E0601C2270311CA8FBF759FF00211CA8FA
:1044B00006F0A2FA064920611C228C3123A8FBF7E2
:1044C0004EFF002123A806F097FA60612AB010BDC4
:1044D000B0C10008CC0100202DE9F04387B01421C1
:1044E0006846FBF755FF5B480025016841F0020173
:1044F0000160016801F002010591016841F040018D
:104500000160016801F040010591016841F001017D
:104510000160016801F001010591016841F00801A5
:104520000160016801F008010591016841F0040192
:104530000160016801F004010591016841F080010A
:104540000160016801F080010591016841F02001DE
:104550000160016801F020010591016841F010013E
:1045600001600068DFF8F08000F010004FF4807404
:104570000590002221464046FDF776FE374E012287
:1045800040213046FDF770FE354F0122102138469C
:10459000FDF76AFEDFF8CC90012211464846FDF790
:1045A00063FE00940124CDE9014569464046039528
:1045B000FDF762FD4020CDE90004029469463046D3
:1045C0000394FDF759FD09204FF40415CDE90005CA
:1045D000694602943046FDF74FFD1020CDE90004F6
:1045E0000226CDE9024669463846FDF745FD3020F2
:1045F000CDE90005694602944046FDF73DFDCDE951
:1046000002460094694648460194FDF735FD0621AF
:1046100000220846FDF7CCFE0620FDF7BBFE002277
:1046200005210920FDF7C4FE0920FDF7B3FE002295
:1046300005210A20FDF7BCFE0A20FDF7ABFE002293
:1046400005211720FDF7B4FE1720FDF7A3FE07B0E4
:10465000BDE8F083303802400008024000180240F4
:1046600000000240000402400C4810B50A490160F5
:1046700000217C22C0E9011240F67F42C0E90321FB
:1046800041618161FEF728FE002803D0BDE810409B
:10469000FCF7A1BE10BD000000280040700B0020F8
:1046A000104810B50E4901604FF48271416000213D
:1046B00002228160C0E9031201224261520282613A
:1046C0001022C0E90721416281620A21C162FEF71E
:1046D0008BFE002803D0BDE81040FCF77CBE10BD67
:1046E00000300140900B002010B588B01C216846B6
:1046F000FBF74EFE144813490024C0E9001441F2B0
:104700008731C0E9024104618461FFF7B5F808B15F
:10471000FCF761FE0C48FFF776FA08B1FCF75BFE88
:104720006020CDE900040294002269460648049402
:10473000FFF703FA08B1FCF74EFE0348FFF7B8F99C
:1047400008B010BD00440140F00C002010B592B03C
:1047500000240F941C2168461094FBF719FE2021B9
:1047600007A8FBF715FE25482349016040F24731B1
:10477000C0E9011440F2CF71C0E9031444618461BF
:10478000FFF741FA08B1FCF726FE0F940FA91B486A
:104790001094FFF729F808B1FCF71DFE6020CDE961
:1047A000000402940394049405940022694613487B
:1047B0000694FFF7C2F908B1FCF70DFE0422694622
:1047C0000E48FFF7BAF908B1FCF705FE0794089404
:1047D00009944FF400500A94CDE90B4007A907480B
:1047E0000E94FEF7D6FF08B1FCF7F5FD0348FFF77E
:1047F0005FF912B010BD000000000140A80C0020BD
:1048000010B5104C0E480C2120600F48606000204D
:10481000A060E060C4E90401A061E0612046FFF708
:10482000C1FB08B1FCF7D7FD2068C16841F0100159
:10483000C160BDE81040642204490248FFF7FEBC95
:1048400000100140380D002040420F00045B0020A2
:104850000D4810B50B4901600C49416000214FF42F
:1048600080628160C0E903120C22C0E90521C161A8
:10487000FFF798FB002803D0BDE81040FCF7ABBD64
:1048800010BD000000480040800D0020A0860100FF
:104890000C4810B50A4901604FF4E1314160002134
:1048A00081600C22C160C0E904128161C161FFF71F
:1048B00079FB002803D0BDE81040FCF78CBD10BD8B
:1048C00000140140C80D0020FEE7FEE70148FDF797
:1048D00097BE0000F81100202DE9F047DFF80084B2
:1048E00005462DED108B98F80100FE4C48B99FED60
:1048F000FE0A84ED000A84ED010A84ED0C0A84EDC1
:104900000D0AFA48D5ED490ADFF8E49390ED011A53
:104910000026B8EEC10AB8EEC11A30EE600A85ED85
:104920004D0AD0ED0E0AD5ED4A1AB8EEE00AF8EEBF
:10493000E00A30EE610A85ED4E0A90ED1B0A95ED16
:104940004B2AF8EEC01AB8EEC00A71EEC21AC5EDD5
:104950004F1AD0ED281AD5ED4C2AB8EEE12A32EEE6
:10496000622A85ED502A85ED491AC5ED4A0A85ED82
:104970004B0AB8EEE10A85ED4C0A9FEDDE8AB0EEF7
:1049800000DA9FEDDDCB00BF06EB860000EBC60131
:1049900009EB810004EB8607B0F91000D7ED080A97
:1049A00000EE100AB8EEC00A30EE600A87ED040A85
:1049B000B5EEC00AF1EE10FA05D2DFEDD10A30EE05
:1049C000200A87ED040A20EE080A20EE0D0A10EEF8
:1049D000100AFBF7BBFE53EC1C2BFBF78BFDFBF720
:1049E000F9FE761C3861042ECEDBE069FBF7AEFEE3
:1049F00041EC100B02F060FBD5F84001B0EE408AAC
:104A0000F0EE608A05F59A75FBF7A0FE53EC182BC3
:104A1000FBF770FD41EC190BA069FBF797FE41EC29
:104A2000100B02F049FBB0EE408AF0EE608AA868F5
:104A3000FBF78CFE53EC182BFBF75CFD41EC180BDD
:104A40006069FBF783FE41EC100B02F035FBB0EE22
:104A500040AAF0EE60AA6868FBF778FE53EC1A2BC8
:104A6000FBF748FD41EC1A0B2069FBF76FFE41ECA8
:104A7000100B02F021FBB0EE40BAF0EE60BA2868ED
:104A8000FBF764FE53EC1B2BFBF734FD53EC1A2BA6
:104A9000FBF789FC53EC182BFBF785FC53EC192B27
:104AA000FBF781FC9FED97EB53EC1E2BFBF722FDF0
:104AB0009FED96FB53EC1F2BFBF71CFDFBF78AFECB
:104AC0002063E069FBF742FE41EC100B03F080F934
:104AD000B0EE408AF0EE608AE868FBF737FE53ECF0
:104AE000182BFBF707FD41EC1B0BA069FBF72EFE13
:104AF00041EC100B03F06CF9B0EE408AF0EE608AE6
:104B0000A868FBF723FE53EC182BFBF7F3FC41ECF2
:104B10001A0B6069FBF71AFE41EC100B03F058F911
:104B2000B0EE408AF0EE608A6868FBF70FFE53EC47
:104B3000182BFBF7DFFC41EC190B2069FBF706FE95
:104B400041EC100B03F044F9B0EE408AF0EE608ABD
:104B50002868FBF7FBFD53EC182BFBF7CBFC53EC61
:104B6000192BFBF720FC53EC1A2BFBF71CFC53EC26
:104B70001B2BFBF718FC53EC1E2BFBF7BBFC53EC79
:104B80001F2BFBF7B7FCFBF725FE606398ED040ACB
:104B9000454688ED0A0A20EE0D0A10EE100AFBF7D2
:104BA000D5FD53EC1C2BFBF7A5FC9FED5A1B53ECDA
:104BB000112BFBF711FDFBF70DFE00EE100A584E0E
:104BC00085ED0B0AD5ED050A544D30EEC00A10EE06
:104BD000100A84ED150A9FED538BA84210EE100ABF
:104BE00006DDFBF7B3FD53EC182BFBF77DFC0BE068
:104BF000B04201D2606D0AE010EE100AFBF7A6FD8C
:104C000053EC182BFBF7CFFBFBF7E4FD6065FBF7DC
:104C10009DFD9FED461B53EC112BFBF768FCFBF74A
:104C2000D9FDA065A84206DDFBF790FD53EC182BDB
:104C3000FBF75AFC07E0B04208D3FBF787FD53ECC3
:104C4000182BFBF7B0FBFBF7C5FDA065FBF77EFD5E
:104C500041EC100B03F0BCF8B0EE408AF0EE608A35
:104C6000606BFBF773FD53EC182BFBF743FC41EC37
:104C7000180BA06DFBF76AFD41EC100B02F01CFA5B
:104C8000B0EE409AF0EE609A206BFBF75FFD53ECBC
:104C9000192BFBF72FFC53EC182BFBF784FB41EC93
:104CA000180B2068FBF752FD53EC182BFBF71CFC8C
:104CB000FBF790FD2060A06DFBF748FD41EC100B69
:104CC00002F0FAF9B0EE408AF0EE608A606BFBF712
:104CD0003DFD53EC182BFBF70DFC41EC190B29E0C3
:104CE000685B0020A8030020000000004C5C00204E
:104CF0001C5D0020000000391F85EB51B81E0940E3
:104D000000000046870D17BC161BC43E00000000C3
:104D10000000D03F0000000000807640F90F4940BD
:104D2000F90F49C0A7E8482EFF211940E5D022DB42
:104D3000F97E05C0A06DFBF709FD41EC100B03F0F7
:104D400047F8B0EE408A94ED0C0AF0EE608AB1EEBE
:104D5000400A10EE100AFBF7F9FC53EC182BFBF796
:104D6000C9FB53EC192BFBF71EFB41EC180B6068D9
:104D7000FBF7ECFC53EC182BFBF715FBFBF72AFDBC
:104D80006060BDEC108BBDE8F087000005F0BAFD57
:104D9000164C174E174D1848FFF79EFDFCF78AFA80
:104DA000C4E90201D4E90427821A61EB0703103435
:104DB00084E80F0030460021103CFBF79FFAFBF718
:104DC0007AFC00EE100AD5ED0C0A20EE200A84EDE4
:104DD000000A00EE100AD5ED0D0A012020EE200A8F
:104DE00084ED010A05F0FCFDD5E7000088010020F4
:104DF00040420F00A8030020100000202DE9F041E0
:104E000003680D4604461E6C03EB4511D1F8080BF0
:104E100094F806E04FF400474FF0200C04F29C4257
:104E2000BEF1010F09D0DFF898E0764539D10204D0
:104E300032D500BFC1F8087B3FE0224B5FEA007E1D
:104E400004D59E4239D90004F4D436E05FEA806E7E
:104E500002D5C1F808CB30E010F0280F2DD19E42CA
:104E600001D90004E6D405EBC50004EB8000D1F8BD
:104E7000101BD0F87432C1F31201591AC0F868122D
:104E800000F51570ADB903691BB1C2681144C1606A
:104E90000FE0012120680AE080060AD5C1F808CB9E
:104EA00007E035B9D4F8640218B90021184601F0BA
:104EB00017FBE9B22046FDF7BBFA0020BDE8F08100
:104EC0000A31544F0A30544F2DE9F84F0E4601EB8A
:104ED000C60100EB810481460568D4E90910143449
:104EE000884202D90120BDE8F88F081AA1688142E2
:104EF00000D20846C01C870805EB46181BE000BF1F
:104F0000A0EB010AA068504500D282460AF10300D6
:104F1000870899F8060000901FFA8AF3F2B2284633
:104F2000E16801F0C7FDE16801EB0A00E06061693A
:104F300001EB0A006061D8F8180980B2B84205D3C5
:104F4000D4E90401814201D20028D9D1D4E9040175
:104F5000884208D806F00F0101208840D5F834189F
:104F60008143C5F834180020BDE700002DE9F04169
:104F7000044600680025C168490618D4C16841F09C
:104F80008001C160FDF776F906464FF47A78042770
:104F900007E000BFFDF76EF9801B404501D9677738
:104FA00001252068C068400601D4002DF2D02846B3
:104FB000BDE8F08170B5044600680025C16821F0A5
:104FC0008001C16020688068800606D42046FEF714
:104FD000EFF910B1042060770125284670BD00006C
:104FE000F0B50C462DED028B85B000287ED00178FF
:104FF000A5297BD1017EAA2978D1417821708178B9
:10500000617000216D4601AE02AF421892F803C0F4
:1050100005F801C092F807C006F801C0D27A7A54A8
:10502000491C0429F1DB002103AD04AE4218D77CF2
:105030007754527D6A54491C0229F7DBC17B84F8FE
:105040003010017C84F82410417C84F83110354EF6
:10505000827C84F832203578B9EE000A6D1C3570F8
:10506000C07D84F82200DDED000A18B260EE800AEF
:10507000C4ED010ADDED010A20EE800ADFED2A0A07
:1050800084ED020A00EE100A9DED028AB8EEC00A15
:1050900084ED058A80EE201A00EE101AF2EE040A62
:1050A000B8EE400A84ED041A80EE201A00EE102AB1
:1050B000BDF810302384B8EE400ABDF80C30A3834D
:1050C00084ED0D1A80EE201A00EE100AF0EE000AB0
:1050D000B8EEC00A84ED0E1A84ED0A0A20EE200A0A
:1050E000143410EE100AFBF731FB00E016E09FEDE0
:1050F0000F1B53EC112BFBF7FDF99FED0E1B53EC2F
:10510000112BFBF769FAFBF765FB00EE100A0B4861
:1051100084ED060A38EE400A80ED150A05B0BDECB4
:10512000028BF0BD000300200000C8421F85EB5138
:10513000B81E09400000000000807640A80300204F
:10514000F8B515460E460B46009204460122022190
:1051500000F02CF8A0B9134813490068B0FBF1F037
:105160004FF47A71484300906068B0F5827F0DD1AA
:105170003346002280212046009500F017F870B1D8
:10518000606D40F0200060650320F8BD009830B1EC
:10519000401E009020688068C0430006F6D50020BD
:1051A000F8BD00000002002000366E012DE9F84332
:1051B0001E46914688460446089DFDF75BF8401B55
:1051C000351AFDF757F8074625480068C0F3CB307D
:1051D000684338E0701C37D0FDF74CF8C01BA8427C
:1051E00003D215B1009860B32CE02068416821F02B
:1051F000E00141606068B0F5827F0BD1A068B0F536
:10520000004F02D0B0F5806F04D12068016821F012
:1052100040010160A06AB0F5005F09D12068016813
:1052200021F4005101602068016841F400510160DF
:10523000012084F85100002084F850000320BDE8CC
:10524000F8830025401E00902068816838EA01003C
:1052500004D000214945BDD10020F0E70121F9E744
:10526000000200200178407841EA002070470120C8
:1052700005F0B6FBFBE7000030B587B014216846A7
:10528000FBF786F80E48016841F480710160006800
:10529000012200F480700B4D14030590214628462E
:1052A000FCF7E2FF0120CDE900400220029003203C
:1052B000039069462846FCF7DFFE07B030BD0000CA
:1052C00030380240001C024010B5502080F3118895
:1052D000BFF34F8FBFF36F8F06F096FE18B10449EE
:1052E0004FF080500860002080F3118810BD00004E
:1052F00004ED00E030B593B030216846FBF748F884
:1053000014210CA8FBF744F81D480025016841F062
:1053100080510160006800F08050119019480168C8
:1053200041F4804101600068022400F48040119043
:1053300001200090000401908001CDE90640062084
:105340000890A820CDE9090407200B906846FDF7D6
:105350000DFE08B172B6FEE70CA90F2081E83100FE
:105360004FF4A0500F904FF48050109005210CA8DE
:10537000FDF7EAFC002801D072B6FEE713B030BD9D
:1053800040380240007000400248016841F470015A
:105390000160704788ED00E00148FEF7F0BA0000B8
:1053A000900F0020F0B50268294C2A4D2A4E2B4F51
:1053B0002B4B4FF0804CA04209D0604507D0A8424B
:1053C00005D0B04203D0B84201D0984204D122F0B7
:1053D000700E4A6842EA0E02A0421BD0604519D006
:1053E000A84217D0B04215D0B84213D0984211D07D
:1053F0001C4DA8420ED01C4DA8420BD01B4DA842FC
:1054000008D01B4DA84205D01A4DA84202D01A4D13
:10541000A84203D122F44075CA682A434D6922F09C
:1054200080022A4302608A68C2620A688262A042DD
:1054300001D0984201D109690163012141610169EB
:10544000C90703D0016921F001010161F0BD00002D
:10545000000001400004004000080040000C004033
:105460000004014000400140004401400048014068
:1054700000180040001C004000200040F0B5036A06
:10548000026A22F00102026242688469124E24F02C
:1054900073050C682C4323F002058B682B430D4DDC
:1054A000A84201D0B04205D123F00807CB683B43A6
:1054B00023F00403A84201D0B04205D14D6922F483
:1054C000407215438A692A43426084614968416396
:1054D0000362F0BD0000014000040140F0B5026A23
:1054E000036A23F010030362436884690D6824F49F
:1054F000E64444EA05248D6822F0200242EA0512BF
:105500000F4D104EA84201D0B04206D1CF6822F014
:10551000800242EA071222F04002A84201D0B042C3
:1055200007D14D6923F4406343EA85038D6943EA5B
:10553000850343608461496881630262F0BD0000B5
:105540000000014000040140F0B5026A036A23F440
:10555000807303624368C46922F4007224F0730507
:105560000C68124E2C438D6842EA05220E4DA8426B
:1055700001D0B04206D1CF6822F4006242EA07228D
:1055800022F48062A84201D0B04207D14D6923F4D1
:10559000405343EA05138D6943EA05134360C46130
:1055A0004968C1630262F0BD00000140000401408F
:1055B00030B5046A026A22F4805202624268C3690A
:1055C0000D6823F4E64343EA05238D6824F4005470
:1055D00044EA0534084DA84202D0084DA84204D13F
:1055E0004D6922F4804242EA85124260C3614968F3
:1055F0000164046230BD000000000140000401406D
:1056000010B5806B0021C185C184FEF791FB10BDF0
:1056100070B5846B2068406994F84110C0F3C010E5
:105620000025212904D118B1E584204600F08EF828
:105630002068406994F84210C0F38010222904D1F8
:1056400018B1E585204600F05AF8606C40F0100073
:1056500060642046FEF76CFB70BD10B50146806BA0
:10566000096809684FF00002C9052ED4C285016897
:105670000C3151E8003F23F4807341E80034002CE2
:10568000F5D10168143151E8003F23F0010341E8EE
:105690000034002CF5D10168143151E8003F23F0AB
:1056A000400341E80034002CF5D1202180F842105D
:1056B000016B012909D101680C3151E8003F23F049
:1056C000100341E80034002CF5D14263016B01293D
:1056D00002D0FEF7C1FD10BD818DFEF7DEFA10BDD0
:1056E00010B5806B01214163016B012902D0FEF7E7
:1056F000B4FD10BD818D4908FEF7CFFA10BD0168D9
:105700000C3151E8002F22F4907241E80023002B65
:10571000F5D10168143151E8002F22F0010241E86F
:105720000023002BF5D1016B012909D101680C314F
:1057300051E8002F22F0100241E80023002BF5D1A0
:10574000202180F8421000210163704701680C316C
:1057500051E8002F22F0C00241E80023002BF5D1D0
:10576000202180F84110704708B590F84210222996
:1057700001D0022008BD82684FF480539A4201D1C3
:10578000016921B1816A9A421BD04AB10AE00268DC
:10579000816A5268C2F308020A80816A891C08E0A3
:1057A000026972B10268526802F07F020A70816A6F
:1057B000491C8162C18D491E0904090CC18503D0B1
:1057C0001BE002685268F1E70168CA6822F0200213
:1057D000CA600168CA6822F48072CA6001684A69B6
:1057E00022F001024A61202180F842100021416329
:1057F000026B012A03D0FEF72FFD002008BD0163D4
:1058000001680C3151E8002F22F0100241E800231A
:10581000002BF5D101680A68D20602D50A684968EA
:105820000091818DFEF739FAE7E7000070B5044674
:1058300000680169E26821F4405111430161216966
:10584000A068E26908436169114308432168CA6896
:1058500049F20C639A430243CA6020684169A26915
:1058600021F440711143416131492068884202D0DE
:105870003049884202D1FDF737FB01E0FDF724FBF8
:10588000E2690023192164253226B2F5004F6268CF
:1058900028D0A0FB0101930F9200FAF72FFD0146DB
:1058A000B0FBF5F06FF01802504301EB800006EBFF
:1058B0000010B0FBF5F000F0F002B1FBF5F002EBE8
:1058C0000012B1FBF5F06FF01803584301EB8000B4
:1058D00006EB0010B0FBF5F000F00F00216810445B
:1058E000886070BDA0FB010192185B41FAF706FDCC
:1058F0000146B0FBF5F00201B1FBF5F06FF01803C3
:10590000584301EB800006EBC000B0FBF5F000F05F
:10591000F80002EB4002B1FBF5F0584301EB8000C8
:1059200006EBC000B0FBF5F000F00700D6E7000082
:10593000001001400014014038B5816204468285A0
:10594000002013466064222284F84220E56B1B4A43
:10595000EA63E56B1A4A2A64E56B1A4AEA64E26B69
:1059600010650A462168E06B091DFCF72DFB2068D5
:10597000016840680090206948B120680C3050E808
:10598000001F41F4807140E80012002AF5D1206820
:10599000143050E8001F41F0010140E80012002AD5
:1059A000F5D12068143050E8001F41F0400140E874
:1059B0000012002AF5D1002038BD00005B56000817
:1059C000E1560008115600082DE9F843984617469D
:1059D0000D460446089E24E0701C22D0FCF74AFCC9
:1059E000A0EB0800B0421AD8CEB12068C1684907C0
:1059F00017D5802D15D0402D13D00168C943090754
:105A00000FD401680025406800902046FFF777FE1C
:105A10000820606484F840500120BDE8F88303202A
:105A2000FBE72068006835EA000004D00020B84297
:105A3000D2D00020F1E70120F9E7000038B5154C7D
:105A4000154D6068401C606028680168C9061CD557
:105A5000C168C90619D501684168016840680090AD
:105A60002846FEF71BF9E86B0068416889B221807F
:105A70004068A0604B2903D108490948FFF7B0FAF4
:105A8000642207490448FEF7D9FBBDE838400248C4
:105A9000FEF750B9E8010020380D0020685B0020B7
:105AA000045B002038B5FCF7E5FB2849486008692D
:105AB000401C0861264800680268920603D5016808
:105AC0004068009038BD234A1268D206FAD50268B1
:105AD000406800902048026813681C0314684FF067
