:020000040800F2
:1000000008A6002061020008136B0008594D000883
:10001000116B0008C9150008098E000800000000D7
:10002000000000000000000000000000A101000826
:10003000D91C000800000000FD010008D17500086F
:100040007B0200087B0200087B0200087B0200089C
:100050007B0200087B020008DB1C00087B02000812
:100060007B020008E11C0008E71C00087B02000876
:10007000011A00087B0200087B0200087B020008CE
:100080007B0200087B0200087B020008D9150008EB
:10009000CD1500087B0200087B020008ED1C00085B
:1000A0007B0200087B0200087B0200087B0200083C
:1000B000A17600087B0200087B0200087B02000892
:1000C0007B0200087B0200087B0200087B0200081C
:1000D0007B020008317D00087B0200083D7D00089E
:1000E0007B0200087B0200087B0200087B020008FC
:1000F0007B0200087B0200087B0200087B020008EC
:100100007B0200087B0200087B0200087B020008DB
:100110007B0200087B0200087B0200087B020008CB
:100120007B0200080D1A00087B0200087B02000811
:100130007B0200087B0200087B020008F115000822
:100140007B020008E51500087B0200084D6D0008E1
:10015000191A00087B020008251A0008FD7D000816
:100160007B0200087B0200087B0200087B0200087B
:100170007B0200087B0200087B02000800000000F0
:100180007B0200087B020008DFF810D000F074FF4B
:100190000048004709A40008AFF3008008A600202B
:1001A0002C4B19680868B0E8F04F80F30988BFF35A
:1001B0006F8F4FF0000080F311887047000000003F
:1001C00008480068006880F308884FF0000080F35A
:1001D000148862B661B6BFF34F8FBFF36F8F00DF35
:1001E00000BF00BF08ED00E0DFF80C00016841F43B
:1001F00070010160704700BF88ED00E0EFF30980F7
:10020000BFF36F8F134B1A681EF0100F08BF20ED5D
:10021000108A20E9F04F106009B44FF0500080F3CD
:100220001188BFF34F8FBFF36F8F0BF009FB4FF0B7
:10023000000080F3118809BC19680868B0E8F04F25
:100240001EF0100F08BFB0EC108A80F30988BFF3CE
:100250006F8F704774000020EFF305807047000037
:100260000648804706480047FEE7FEE7FEE7FEE750
:10027000FEE7FEE7FEE7FEE7FEE7FEE79176000811
:10028000890100089FED1A1AF5EE000A40EE010AF6
:10029000BDEEE00AF5EEC00A10EE100AF1EE10FA1B
:1002A00038BF401E00EE100A1349F7EE001AB8EEF0
:1002B000C00A30EEC00ADFED0F0A20EE200AFCEE85
:1002C000C00A10EE900AC0F3080000EE900A01EB9D
:1002D0008000F8EE600A90ED011A70EE600A90ED71
:1002E000000A71EEE01A21EE800A00EE810A7047E2
:1002F00083F9223E0000004410C10008B5EEC00A98
:10030000F1EE10FA07D2DFED1E0AB4EEE00AF1EECC
:1003100010FAA8BF7047DFED1B0AB5EEC00A60EE09
:10032000200ABDEEE01A11EE100AF1EE10FA38BF05
:10033000401E00EE100A1549F7EE001AB8EEC00A8A
:1003400030EEC00ADFED100A60EE200ABCEEE00AD3
:1003500010EE100AC0F3080000EE100A01EB800056
:10036000B8EE400A90ED011A70EEC00A90ED000A56
:1003700071EEE01A21EE800A00EE810A704700005B
:10038000CD024CB483F9223E0000004410C10008A5
:1003900070B405880E884468D1F804C05368B5422B
:1003A00008D140884988884201BF11888D42518810
:1003B000884203D070BC6FF00200704705FB00F16B
:1003C000880827D094ED001ADCED000A94ED010AAC
:1003D000DCED011A31EE201AD4ED020A70EE211A7A
:1003E0009CED020A83ED001AC3ED011A94ED031A85
:1003F000DCED031A30EE800A401E71EE210A83ED17
:10040000020A04F11004C3ED030A03F110030CF116
:10041000100CD7D111F0030030D0B0F1004F30D222
:1004200000282BDD211F1B1FACF1040210F0010F6F
:100430000AD091ED010AD2ED010A091D121D30EE1C
:10044000200A83ED010A1B1D400817D091ED010A17
:10045000D2ED010A401E30EE200A83ED010A91ED33
:10046000020AD2ED020A01F1080102F1080230EE9F
:10047000200A83ED020A03F10803E7D170BC0020D3
:100480007047B4EC010A401EFCEC010A30EE200A71
:10049000A3EC010AF5D1F1E7018042804360704787
:1004A0002DE9F34F84B004984068009048680190AB
:1004B0000498B0F800E04588DFEDFE0A00200290C5
:1004C000B0EE600AAE4506D108884988884204BF6C
:1004D0007146864504D06FF0020006B0BDE8F08F8B
:1004E00001985FEA010C18BFB7EE001A3DD000BFBB
:1004F000BEEB0C0117D0B1F1004F80F01F82002934
:1005000011DD021F11F0010F1CBFC2ED010A121D07
:100510004B1006D0C2ED010AC2ED020A08325B1E82
:10052000F8D100EB8100BCF10102A0EC011A19D056
:10053000B2F1004F80F00882002A13DD031F12F091
:10054000010F1CBFC3ED010A1B1D511008D000BFD5
:10055000C3ED010AC3ED020A491E03F10803F7D1F6
:1005600000EB8200BCF1010CC2D14FF000080395F2
:10057000002D14BFB0EE602A002000F0BF8100BF44
:10058000009908FB05F001EB800B0199DBED002AD7
:1005900001EB80000346F0EE421AC64552D9AEEB9D
:1005A0000802ABEB850112F0010F17D001EB8501BA
:1005B00091ED000AB5EEC00AF1EE10FA07DDB4EED7
:1005C000E10AF1EE10FA09DDF0EE401A06E0B1EEB4
:1005D000400AF4EEC01AF1EE10FAF5D3521031D001
:1005E00001EB850C9CED000AB5EEC00AF1EE10FAA5
:1005F00005DDB4EEE10AF1EE10FA09DD06E0B1EE38
:10060000400AF4EEC01AF1EE10FA01D2F0EE401AF0
:1006100001EBC50191ED000AB5EEC00AF1EE10FA4A
:1006200005DDB4EEE10AF1EE10FA09DD06E0B1EE07
:10063000400AF4EEC01AF1EE10FA01D2F0EE401AC0
:10064000521ECDD1F5EEC01AF1EE10FA00F0738112
:10065000F5EEC02A0126F1EE10FA0099D4BFB1EEF2
:10066000620AB0EE620AB4EE610AF1EE10FA1CBF43
:10067000AEEB0802B2F1010C47D005FB08F201EB2A
:10068000820292ED001A00BFB0EE410A05FB06F4AB
:10069000B5EEC00A00EB8404F1EE10FACCBFF0EE28
:1006A000400AF1EE400AF4EE610AF1EE10FA28D1A8
:1006B000B5EB080C11D0BCF1004F7DD2BCF1000F9E
:1006C0000BDD00BF92ED000AD1ED000ABCF1010C78
:1006D000E2EC010AA1EC010AF4D129000ED0B1F13B
:1006E000004F6AD2002909DD94ED000AD0ED000A1E
:1006F000491EE4EC010AA0EC010AF5D101200290A8
:100700000BE0761CBCF1010CBED10298012804D08C
:10071000F5EEC02AF1EE10FA7ED09BED000AB5EBA3
:1007200008009A465946064622D0B0F1004F74D2CE
:1007300000281DDD091F10F0010F06D0F0EE400A61
:1007400080EEA01A81ED011A091D401010D000BFE3
:10075000D1ED010A401E80EE801A81ED011A91ED63
:10076000021AC1EE000AC1ED020A01F10801EFD13F
:10077000280026D0B0F1004F7ED2002821DDAAF15A
:10078000040110F0010F06D0D1ED010A80EE801AAD
:1007900081ED011A091D401013D000BFD1ED010AEF
:1007A000401E80EE801A81ED011AD1ED020A80EE22
:1007B000801A81ED021A01E0CBE0D6E001F10801D8
:1007C000ECD1DDE900124FF000095FEA0E0773D0AB
:1007D000C14504BF01EB860102EB850274D091EDA7
:1007E000000ADC465046331E35D01C46B6F1004F99
:1007F0007ED2002C2FDD0B1FABF1040C16F0010F85
:100800000FD0F0EE400ADCED011AB0EE601A00EEF7
:10081000E11A83ED011A01E08DE0B1E01B1D0CF13E
:10082000040C741015D000BFD3ED010A9CED011A21
:1008300040EE410AC3ED010AD3ED020A9CED021A13
:100840000CF1080C40EE410AC3ED020A0833641EA5
:10085000EAD101EB86012B0036D0B3F1004F72D202
:10086000002B31DDA2F1040CAAF1040013F0010FFA
:100870000CD0DCED010A00E08BE090ED011A001DC8
:1008800040EE410ACCED010A0CF1040C5C1019D0C9
:10089000DCED010A90ED011A40EE410ACCED010AAF
:1008A000DCED020A90ED021A083040EE410ACCED70
:1008B000020A03E0000000000DE005E0641E0CF1F8
:1008C000080CE5D102EB830201EB88017F1E09F1E0
:1008D00001097FF47DAF009808F10108001D009028
:1008E0000398401E03907FF44BAE0299012900E06B
:1008F00058E004BF06B0BDE8F08F00BFB5EEC00AF7
:10090000F1EE10FA7FF4E9AD04990EFB05F3002B2C
:100910004A684FF000010BD902EB810C9CED000AF4
:10092000B5EEC00AF1EE10FA02D1491C8B42F3D8A1
:100930008B427FF4D2AD6FF00400CEE5E0EC010A0B
:10094000491EFBD1EFE538E0E0EC010A521EFBD175
:1009500008E692ED000AD1ED000ABCF1010CE2ECD0
:10096000010AA1EC010AF4D1B7E694ED000AD0ED3A
:10097000000A491EE4EC010AA0EC010AF5D1BDE62B
:10098000D1ED000A401E80EE801AA1EC011AF7D1C9
:10099000EEE6D3ED000A401E80EE801AA3EC011AA9
:1009A000F7D10EE7BCEC011AD1ED000A5B1E40EE58
:1009B000410AE1EC010AF5D14DE7B0EC011AD2EDA4
:1009C000000A5B1E40EE410AE2EC010AF5D17BE72A
:1009D0002DE9F04F82B04668536801930588478837
:1009E0004B88002000900888874201BFB2F800C001
:1009F0006545528893421EBF6FF0020002B0BDE809
:100A0000F08F9FED412A4FEA970EC7F3400B00BFCE
:100A1000DDE9000202EB800A4A6898464FF00009BF
:100A2000B0EE420AB4465FEA0E0025D092ED001AFD
:100A3000DCED001A02EB8302DCED010A01EE810A13
:100A400092ED001A02EB8302401ED2ED001A02EB77
:100A5000830200EE810A9CED021ADCED030A000419
:100A60000CF1100C000C01EE210A92ED001A02EBC1
:100A7000830200EE810AD9D117F0030026D0ACF131
:100A80000404A2EB830210F0010F08D002EB8302F2
:100A9000D4ED010A92ED001A241D00EE810A5FEAEE
:100AA0000B0013D002EB830CD4ED010A9CED001A6D
:100AB00002EBC302401E00EE810AD4ED020A92ED61
:100AC000001A04F1080400EE810AEBD109F10100DB
:100AD000AAEC010A1FFA80F9486800EB8902A8F124
:100AE00001001FFA80F8B8F1000F99D1009806EBC9
:100AF0008706184480B20090681E05042D0C87D12B
:100B000002B00020BDE8F08F0000000070B405883E
:100B10000E884468D1F804C05368B54208D14088B3
:100B20004988884201BF11888D425188884203D08C
:100B300070BC6FF00200704705FB00F1880827D0F9
:100B400094ED001ADCED000A94ED010ADCED011AC7
:100B500031EE601AD4ED020A70EE611A9CED020AC1
:100B600083ED001AC3ED011A94ED031ADCED031AAC
:100B700030EEC00A401E71EE610A83ED020A04F1F4
:100B80001004C3ED030A03F110030CF1100CD7D1CC
:100B900011F0030030D0B0F1004F30D200282BDD2F
:100BA000211F1B1FACF1040210F0010F0AD091EDC0
:100BB000010AD2ED010A091D121D30EE600A83ED13
:100BC000010A1B1D400817D091ED010AD2ED010A60
:100BD000401E30EE600A83ED010A91ED020AD2ED6B
:100BE000020A01F1080102F1080230EE600A83ED09
:100BF000020A03F10803E7D170BC00207047B4EC8F
:100C0000010A401EFCEC010A30EE600AA3EC010A66
:100C1000F5D1F1E72DE9F04F02884768B0F802807E
:100C20004888D1F8049082B04FF0000A16468242FC
:100C300007BF098888456FF0020002B018BFBDE801
:100C4000F08F4FEA980B02EB42000190C8F340008E
:100C5000CDF8000009EB8A01BBF1000F33D00198F9
:100C600001EB820C01EB80043B46E64601EBC2053A
:100C70004FEA0B0093ED000A401E81ED000A93ED50
:100C8000010A01EB02118CED000A93ED020A0CEB54
:100C9000021C85ED000A93ED030A05EB021584EDB5
:100CA000000A04EB021403F11003E3D10EEB8200FF
:100CB00000EB820000EB8201ABF10100504307EB37
:100CC0000B1701EB001118F0030C21D03B1FA1EB17
:100CD00082011CF0010F06D093ED010A01EB8201A5
:100CE0001B1D81ED000A009880B100BF93ED010A41
:100CF00001EB820401EBC20184ED000A93ED020ACC
:100D0000401E81ED000A03F10803EFD107EB8C07C9
:100D10000AF101001FFA80FA701E0604360C99D100
:100D200002B00020BDE8F08F2DE9F05F05460020FD
:100D300092469B4688460646814640241BE028464C
:100D400041464746224600F0F2F853465A46C01A3A
:100D5000914110D311461846224600F0D9F82D1AB9
:100D600067EB01084F4622460120002100F0D0F831
:100D700017EB00094E41201EA4F10104DFDC4846B8
:100D800031462A464346BDE8F09F40EA01039B07EF
:100D900003D009E008C9121F08C0042AFAD203E0F0
:100DA00011F8013B00F8013B521EF9D27047D2B254
:100DB00001E000F8012B491EFBD270470022F6E744
:100DC00010B513460A4604461946FFF7F0FF2046C1
:100DD00010BD2DE9FE4F81EA030404F0004421F028
:100DE000004100944FF0000B23F0004350EA01044F
:100DF0005ED052EA03045BD0C3F30A54C1F30A5530
:100E00002C44A4F2F3340194A0FB0254C1F3130167
:100E100041F48011C3F3130343F4801301FB024434
:100E200000FB034E840A970A44EA815447EA835739
:100E3000A4FB076802958D0A05FB07854FEA932CF2
:100E400004FB0C542705029D4FEA065847EA163763
:100E5000B5EB08056EEB070C870E920E47EA81177B
:100E600042EA8312A7FB0201B6EB0B0164EB00041C
:100E70002B0D43EA0C335E1844EB1C50DA46514606
:100E8000E7FB0201C5F313044FEA0B3343EA1453A3
:100E90004FEA0432019C43EA0603A4F10C040294D5
:100EA000009CCDE900B400F098F803B0BDE8F08FE5
:100EB00000200146F9E70EB5C10F80EAE070084452
:100EC000CA07002140F233438DE80E000A460B4664
:100ED00000F083F803B000BD01F0004330B421F00E
:100EE000004150EA010206D00A0DA2F56072C1F37A
:100EF0001301002A02DC30BC00207047440F44EA92
:100F0000C104C100E01830BC00EBC25000F01FB8B3
:100F1000202A04DB203A00FA02F1002070479140B9
:100F2000C2F1200320FA03F3194390407047202AAE
:100F300004DB203A21FA02F00021704721FA02F383
:100F4000D040C2F120029140084319467047002961
:100F5000A8BF7047401C490008BF20F0010070473F
:100F600010B4B0FA80FC00FA0CF050EA010404BF9F
:100F700010BC704749B1CCF1200421FA04F411FAF5
:100F80000CF118BF012121430843A3EB0C01CB1D39
:100F90004FEA00614FEA102042BF002010BC7047AA
:100FA00000EBC35010440029A4BF10BC7047401C84
:100FB000490008BF20F0010010BC704710B5141E96
:100FC00073F1000408DA401C41F1000192185B4102
:100FD0001A4301D120F0010010BD2DE9F04D9246D9
:100FE0009B4611B1B1FA81F202E0B0FA80F22032F0
:100FF0009046FFF78DFF04460F4640EA0A0041EA9B
:101000000B0153465A46084313D0114653EA0100D8
:1010100019D0C8F140025046FFF789FF05460E4639
:10102000504659464246FFF773FF084305D001205A
:1010300004E020463946BDE8F08D0020054346EA2D
:10104000E0762C4337430A986305E40AA0EB0800D6
:101050000022FD0A44EA47540A3002D50020014626
:10106000E9E7010510196941DDE908450019694101
:10107000BDE8F04DA2E70000064C074D06E0E06831
:1010800040F0010394E8070098471034AC42F6D3CF
:10109000FFF77EF888C90008A8C9000870B58C1849
:1010A00010F8015B15F0070301D110F8013B2A117C
:1010B00006D110F8012B03E010F8016B01F8016B69
:1010C0005B1EF9D12B0705D40023521E0DD401F865
:1010D000013BFAE710F8013BCB1A921C03E013F82E
:1010E000015B01F8015B521EF9D5A142D8D3002063
:1010F00070BD000010B504460C482DED028B417AFE
:101100009FED0B8BB0F90400012903D0022901D017
:10111000032908D1FFF7CFFE53EC182BFFF759FE38
:10112000FFF7DAFE2060BDEC028B10BD105B0020E3
:101130002D431CEBE2362A3F70B5294D04462DEDB8
:10114000048B287A012808D0022802D0032810D165
:1011500001E000200CE001200AE02248042201788E
:101160000220B2EB111F03D11F49897D01B9032071
:10117000A075A07D50B39FED1D9B9FED1E8B012898
:1011800003D0022801D003281DD1B5F90200FFF7D2
:1011900092FE53EC192BFFF71CFE53EC182BFFF7B4
:1011A00018FEFFF799FEA060B5F90000FFF783FE77
:1011B00053EC192BFFF70DFE53EC182BFFF709FE2C
:1011C000FFF78AFEE060BDEC048B70BD9FED0B0A5B
:1011D00084ED020A84ED030A84ED040AF3E70000BB
:1011E000105B0020B85B0020385900200000000090
:1011F00000000440809F71E14048363F000000003D
:1012000001221021014801F0E1BC00000000024071
:1012100000221021014801F0D9BC0000000002406A
:1012200001221146014801F0D1BC00000004024037
:1012300000220121014801F0C9BC00000004024065
:1012400070B50546FFF7E4FF922000F02DF9062265
:101250006549122000F00AF9FFF7D2FF624CA4F1B1
:101260001C0660782178000200B2084300EE100AE4
:10127000D6ED030AB8EEC00A60EE200A95ED080A22
:1012800060EE800AC5ED000AE078A178000200B2A5
:10129000084300EE900A96ED031AF8EEE00A60EEBD
:1012A000810A60EE800AC5ED010A607921790002A9
:1012B00000B2084300EE900A3081F8EEE00A60EEDA
:1012C000810A20EE800A85ED020AFFF7B1FF0822AD
:1012D0002146002000F0CAF8FFF7A2FF20780F286F
:1012E0005AD1F078A1780028E0784FEA002000B2C7
:1012F00040EA01002BD000EE100AD5ED090AB8EE45
:10130000C01A96ED040A51EE000AC5ED030A607991
:101310002179000200B2084300EE900A95ED0A1A06
:10132000F8EEE00A10EE801A85ED041AE079A17952
:10133000000200B2084300EE900A308195ED0B1ACE
:10134000F8EEE00A10EE801A85ED051A24E000EEB2
:10135000100AF8EEC00A96ED040A60EE800AC5EDA8
:10136000030A60792179000200B2084300EE900A76
:10137000F8EEE00A60EE800AC5ED040AE079A17992
:10138000000200B2084300EE900A3081F8EEE00A55
:1013900020EE800A85ED050AFFF73AFFA22000F053
:1013A00083F802221049222000F060F8FFF728FF9E
:1013B00020786178C00040EA51103081B0F5806F2C
:1013C00002DBA0F500603081B6F90800B4EE001A27
:1013D00000EE100AF8EEC00AB3EE070A00EE810A2A
:1013E00085ED070A70BD00001401002070B50D46A0
:1013F0001649174C08600020A07008F071F8A17819
:101400000843A07008F000F9A1780843A0701DB14E
:10141000104800F0F3F816E00E489FED0F0A80ED3B
:10142000090A9FED0E0A80ED0A0A80ED0B0A9FED76
:101430000C0A80ED0C0A9FED0B0A80ED080A9FED67
:101440000A0A80ED060AA07870BD00004001002065
:10145000F800002068560020AC38223BB016CE3988
:101460003F161B41C48B813F0000204270B51446DB
:101470000D4640F0800000F017F806E0552000F01F
:1014800013F8641E05F8010BE4B2002CF6D170BD10
:1014900010B50C4640F0800000F006F8552000F032
:1014A00003F8207010BD000001B582B04FF47A70CF
:1014B00000900548012301AA02A9006802F022FD5C
:1014C0009DF804000EBD00004001002010B50C4640
:1014D000FFF7EAFF2046BDE81040FFF7E5BFB6EE94
:1014E000000AD2ED020AF0EE401A92ED031A40EE25
:1014F000E01A90ED002AD2ED012AD0ED013A22EE59
:10150000A03A41EE411A21EE822AD2ED001A01EEF4
:10151000C13A22EE811A01EEA01A03EE232AD0ED81
:10152000020AF0EE001A01EE202A62EE210AC1ED55
:10153000000A92ED011AD2ED023A92ED002AD2EDA4
:10154000030A61EE232A90ED003A90ED014A42EE43
:10155000202A62EE832AB0EE403A01EE413A00EED4
:10156000E03A63EEA00A42EE410A43EE042A90ED0F
:10157000021A40EE812A62EEA10AC1ED010A92ED43
:10158000011AD2ED032AD2ED020A92ED003A21EEC1
:10159000222A60EEA22AD0ED003A01EE410A03EEC3
:1015A000602A43EE012A90ED013A00EEE00A22EEB5
:1015B000232AD0ED020A02EE832A00EE202A22EE30
:1015C000210A81ED020A7047FEE70000014800F0A1
:1015D00082BD0000E0060020014800F07CBD000054
:1015E000E0060020014800F076BD0000080700205A
:1015F000014800F070BD0000080700202DE9F04F01
:1016000004462DED048B89B000200090019000F07D
:10161000D3FAED4DDFF8B4B3DFF8B49385ED050AE6
:1016200002AE0DF114084FF07C5A00BF00F0C4FA6E
:10163000D5ED050A30EE600A10EE100A584512DDAD
:101640009FEDE40A84ED090A9FEDE30A84ED0A0A9E
:1016500084ED0B0A9FEDE10A84ED0C0A9FEDE00A90
:1016600084ED060A8BE19FEDDF0A00F069FA9FED39
:10167000DE0A002784ED0C0A84ED090A84ED0A0ACB
:1016800084ED0B0AFBE000BFFFF7C2FD9220FFF7DD
:101690000BFF062269461220FFF7E8FEFFF7B0FDB8
:1016A0009DF801009DF80010000200B2084300EE12
:1016B000100AD5ED030AB8EEC00A60EE201AC4ED98
:1016C000001A9DF803009DF80210000200B20843C2
:1016D00000EE100A95ED031AB8EEC00A60EE010A9A
:1016E000C4ED010A9DF805009DF80410000200B247
:1016F000084300EE100AB8EEC00A20EE011A21EEEF
:10170000A10A84ED021A00EEA00A01EE010A07F018
:1017100061FEB0EE408A94ED0C0A30EE080A84EDCA
:101720000C0AFFF785FD082269460020FFF79EFEA0
:10173000FFF776FD9DF800000F2840D19DF80300CB
:101740009DF80210000200B2084300EE100AD5ED29
:10175000040AB8EEC00A20EE200A84ED030A94EDD4
:10176000091A31EE000A84ED090A9DF805009DF87A
:101770000410000200B2084300EE100AB8EEC00ADE
:1017800020EE200A84ED040A94ED0A1A31EE000AD4
:1017900084ED0A0A9DF807009DF80610000200B2C9
:1017A000084300EE100AB8EEC00A20EE200A84EDCD
:1017B000050AD4ED0B0A30EE800A84ED0B0A002FE7
:1017C0007ED0B4EEC98AF1EE10FA01DDB0EE489A8F
:1017D000B4EEE88AF1EE10FA01D2F0EE488A002069
:1017E0004FEA080204EB800191ED030A06EB800149
:1017F000D1ED000AB4EEE00AF1EE10FA01DD81ED60
:10180000000A02EB8001D1ED000AB4EEE00AF1EE2D
:1018100010FA01D281ED000A401CC0B20328E1D3C6
:1018200039EE680A0020424685ED060A4FEA0901B2
:1018300006EB8003D3ED000A02EB800393ED001A60
:1018400001EB8003401C70EEC10AC0B20328C3ED57
:10185000000AEDD310EE100A504514DC63480A6804
:10186000824210DC4A6882420DDCD9F808108142BD
:1018700009DC9FED5F0A00F063F97F1CBFB2E888C6
:101880008742FFF401AFE988D4ED0C0A00EE101A8C
:101890002F460020B8EE400A80EE801A84ED0C1A24
:1018A00000EE101A04EB8002401CB8EE400AD2EDA4
:1018B000090AC0B2032880EE801A82ED091A00E0FE
:1018C0006AE0EDD3FFF7A4FCA220FFF7EDFD0222B2
:1018D00069462220FFF7CAFDFFF792FC9DF8000041
:1018E0009DF80110C00040EA5110B0F5806F01DB97
:1018F000A0F5006000EE100AB4EE001AF8EEC00A7F
:10190000B3EE070A00EE810A84ED060AB888401C8F
:10191000B880B86950453FF789AE94ED0C0ADFED09
:10192000350A30EE600AB0EEC00A10EE100A5045DB
:10193000F1DC2E48D9F800104A468142EBDC5168B0
:101940008142E8DCD9F808108142E4DC94ED090A10
:101950002948B0EEC00A10EE101A8142DBDC94ED8B
:101960000A0AB0EEC00A10EE101A8142D3DC94EDE0
:101970000B0AB0EEC00A10EE101A8142CBDC94EDD7
:101980000C0ADFED1E0A80EE801A84ED081A09B0F9
:10199000BDEC048BBDE8F08FB0EE489AF0EE488ABB
:1019A0000020414604EB800292ED030A06EB800220
:1019B00082ED000A01EB8002401CC0B282ED000AF9
:1019C0000328EFD32CE70000F8000020000020419E
:1019D0005C560020AC38223BB016CE393F161B4176
:1019E000000020420AD7A33B000000009A99193E4C
:1019F0006F12033ACDCC1C410AD7233CC3F51C41DE
:101A0000014800F059BE0000900A0020014800F093
:101A100053BE0000F00A0020014800F04DBE000057
:101A2000D0090020014800F047BE0000300A002025
:101A300001681823CAB2103AB2FBF3F2054B6FF3F8
:101A40000901032A9B5CC36500D9091D816508460D
:101A50007047000030BD000810B5014600208B69BA
:101A60008A6A4FF0C07453B1B3F5005F15D072B1FC
:101A7000012A0CD0022A0AD0032A09D104E01AB1A3
:101A8000012A06D0022A03D1C96AC90100D5012062
:101A900010BDC96AA142FAD010BD002AF7D0012AB0
:101AA000F2D0022AF3D0032AF3D010BD30B5046877
:101AB000256825F480252560046863608368402BD1
:101AC000036803D099600068C26030BD9A60006806
:101AD000C16030BD70B50D480E4C0D4D4168206899
:101AE00001290AD0002907D1012805D108F08AFD73
:101AF0002878002800D1206070BD0028FCD108F0B3
:101B00006FFD28780128F6D070BD0000500300203A
:101B10009C59002004000020074808B54068009048
:101B2000014606480269914202D2C168491CC1605F
:101B30000099016108BD0000001000E018020020BB
:101B40000A4948680A4AD2ED000A4A68121AF8EEB1
:101B5000601A01EE102AB8EE411A60EE211AB4EEB6
:101B6000E11AF1EE10FAF0D370470000001000E027
:101B70001802002000B50E492DED028B81B0496896
:101B800000910168009A511A00EE101A0949F8EE06
:101B9000400A91ED000A0260B8EE400A80EE808AA9
:101BA000FFF7BAFF01B0B0EE480ABDEC028B00BDF2
:101BB000001000E01802002010B500F043F80C48B7
:101BC0009FED0C1A818890ED000A00EE901AC088F3
:101BD000B8EE400AF8EE600A00EE810A00EE900AC4
:101BE0009FED051AF8EE600A00EE810A10BD0000B4
:101BF000480200206F12833ABD3786350D490A68C6
:101C000042F080720A600C4900224A600B6843F07F
:101C100001030B6009494FF47A734843B0FBF3F3B7
:101C20000749C1E90003054BB0FBF3F0C1E902022B
:101C300070470000FCED00E0001000E040420F00A3
:101C4000180200202DE9F843214840680090FFF772
:101C500063FF204F0024009EF8684FF0FF312546B7
:101C6000E0FB0165C7E90E65D7F8008023464246D0
:101C700030462946FFF758F8A0FB083CC7E90601A3
:101C800001FB08C100FB0411F61A65EB0105C7E969
:101C9000086507F130080023C8F80000D7F8049061
:101CA00030464A462946FFF73FF880B2A8F80400BC
:101CB00000FB09F0301A65EB0405C7E90A0529465F
:101CC0000023BA68FFF730F8A8F80600BDE8F883EB
:101CD000001000E0180200207047012000F072BEE2
:101CE000082000F06FBE102000F06CBE202000F035
:101CF00069BEB6EE000AD2ED020AF0EE401A92ED8D
:101D0000031A40EEE01A90ED002AD2ED012AD0ED40
:101D1000013A22EEA03A41EE411A21EE822AD2ED9A
:101D2000001A01EE813A22EE811A01EEE01A03EE6A
:101D3000232AD0ED020AF0EE001A01EE202A62EE0C
:101D4000210AC1ED000A92ED011AD2ED023A92ED9C
:101D5000002AD2ED030A61EE232A90ED003A90EDBD
:101D6000014A42EE602A62EE832AB0EE403A01EE6A
:101D7000413A00EEE03A63EEA00A42EE010A43EE79
:101D8000042A90ED021A40EE812A62EEA10AC1ED0A
:101D9000010A92ED011AD2ED032AD2ED020A92ED68
:101DA000003A21EE222A60EEA22AD0ED003A01EE9E
:101DB000410A03EE202A43EE412A90ED013A00EE5B
:101DC000E00A22EE232AD0ED020A02EE832A00EE78
:101DD000202A22EE210A81ED020A704772B6FEE740
:101DE00090F82020012A07D0022A05D0416A41F448
:101DF0008021416201207047006842690A434261C4
:101E000000207047F0B590F820500468A468012DB8
:101E100005D0022D03D0416A41F4802157E014F02F
:101E2000406F01D1E5004FD5C4F301640125A54001
:101E30001D608D684FF4C0739DB1CE6835434E6808
:101E400045EAC605066803EB0417F5514FF4C27561
:101E5000076805EB04150E697E51097D012905D03F
:101E600009E00E88CD6845EA4655EBE701684E5912
:101E700046F480764E511179D579567941EA05615B
:101E800095792D0445EA062529434FF4C676056861
:101E900006EB0416A9511178D57841EA05619578C9
:101EA00052782D0445EA022211434FF4C4750268AA
:101EB00005EB04155151006803EB0411425842F040
:101EC000010242500020F0BD416A41F4001141621C
:101ED0000120F0BD10B590F82020012A07D0022A79
:101EE00005D0416A41F480214162012010BD3B4888
:101EF000D0F8002242F00102C0F80022D0F80022FF
:101F000022F47C52C0F80022D0F800224B6A42EA48
:101F10000322C0F800220A7D02F01F0301229A402A
:101F2000D0F81C329343C0F81C32CB69B3B9D0F857
:101F30000C329343C0F80C328C894B6864F31F4316
:101F40004C6900EBC404C4F840320C890B6864F39C
:101F50001F434C6900EBC404C4F84432CB69012B25
:101F600016D1D0F80C321343C0F80C320C884B68F1
:101F700064F31F434C6900EBC404C4F840320C897D
:101F8000CB6864F31F434C6900EBC404C4F84432CB
:101F90008B69002BD0F804320ED01343C0F8043202
:101FA0000B69002BD0F8143208D01343C0F8143258
:101FB000096A012904D008E09343EFE79343F5E76A
:101FC000D0F81C121143C0F81C12D0F8001221F0F6
:101FD0000101C0F80012002010BD000000640040A4
:101FE000704770B590F82040012C05D0022C03D02A
:101FF000416A41F4802128E0046809B32469A407F8
:1020000020D04FF4D874056804EB01142D5915F055
:102010000405956005682D591AD0ED0855600568CE
:102020002C5904F00204D4604FF4DA74056804EB10
:1020300001142E5906F00F06082E0CD308250DE0CA
:10204000E468DCE7416A41F400114162012070BD9F
:102050006D0D1560E3E72D5905F00F051561056855
:102060002D59C5F30725956105682C59240C546139
:102070004FF4DC72046802EB0112A4581C7004686F
:10208000A458240A5C700468A458240C9C7004684A
:10209000A258120EDA704FF4DE72046802EB0112DD
:1020A000A4581C710468A458240A5C710468A458DC
:1020B000240C9C710468A258120EDA71006829B1D0
:1020C000016941F020010161002070BDC16841F04B
:1020D0002001C160F8E72DE9F05F054600680024A3
:1020E0004669D0F804908768D0F80CB0D0F810A0FA
:1020F000D0F81880F10748D0F90714D00121816089
:10210000B80703D5284600F076FA0CE0780702D528
:102110004FF4006407E0380702D54FF4805402E022
:10212000284600F067FAF80516D529684FF4807044
:102130008860B80503D5284600F05FFA0CE0780502
:1021400002D544F4005407E0380502D544F4804435
:1021500002E0284600F050FAF80316D529684FF43B
:1021600080308860B80303D5284600F048FA0CE0B8
:10217000780302D544F4004407E0380302D544F460
:10218000803402E0284600F039FA300707D55FEACC
:10219000CB6004D52968102044F40074C86070072F
:1021A0004FF0080707D55FEA0B7004D52868C760B1
:1021B000284600F0A9F9B00706D52868C06880074E
:1021C00002D0284600F0A2F9700607D55FEACA607F
:1021D00004D52968102044F480640861B00607D54E
:1021E0005FEA0A7004D528680761284600F0B4F950
:1021F000F00606D528680069800702D0284600F05E
:10220000ADF9B00308D55FEAC96005D5296810208B
:102210004860284600F0C0F9F00307D55FEA09706E
:1022200004D528684760284600F0EAF9300446D50E
:102230005FEA497040D5F00504D55FEAC87001D067
:1022400044F00104B00504D55FEA887001D544F07C
:102250000204700504D55FEA487001D544F0040417
:10226000300529D518F0700F26D008F070004028EE
:1022700015D006DC102809D020280AD0302816D125
:102280000AE050280ED0602811D10EE044F0080476
:102290000DE044F010040AE044F0200407E044F0AC
:1022A000400404E044F0800401E044F480742868B1
:1022B000816921F070018161296804204860002C47
:1022C00005D0686A204368622846FFF789FEBDE8AA
:1022D000F09F70B5040003D094F8200010B104E022
:1022E000012070BD204600F081F82068016841F0AF
:1022F0000101016000F070FC0546052604E000F0D5
:102300006BFC401B0A2811D820684068C007F6D033
:102310002068016821F00201016000F05DFC0546C3
:102320000BE000F059FC401B0A2806D9606A40F413
:102330000030606284F82060D2E72068406880073F
:10234000EFD4207E0128206801683DD021F0800173
:102350000160607E01282068016838D021F04001CA
:102360000160A07E01282068016833D021F020019F
:102370000160E07E0128206801682ED041F0100144
:102380000160207F01282068016829D021F0080120
:102390000160607F01282068016824D021F00401D9
:1023A0000160D4E902010843D4E90412114308434F
:1023B0006168491E08432168C861002060620120ED
:1023C00084F82000002070BD41F08001C0E741F09A
:1023D0004001C5E741F02001CAE721F01001CFE735
:1023E00041F00801D4E741F00401D9E7F0B587B026
:1023F000044614216846FEF7E1FC3E4B3E48DFF8F8
:10240000F0E01968D4F800C03B4A032502260927EA
:1024100010300024491CF4452AD11960012907D144
:10242000016841F000710160006800F000700590E3
:10243000106840F0080010601068CDE9005600F008
:102440000800CDE9047069462C48CDE9024500F04A
:10245000C5FA00220521132000F05CFC132000F0D7
:102460004BFC00220521142000F054FC14203AE01B
:10247000DFF88CE0F44538D1D0F800C04CF0806C27
:10248000C0F800C0D0F800C001290CF0806CCDF875
:1024900014C0196007D1016841F000710160006843
:1024A00000F000700590106840F0020010601068A5
:1024B00002AB00F0020005906020CDE9000683E841
:1024C000B00069460F4800F089FA002205213F203C
:1024D00000F020FC3F2000F00FFC002205214120ED
:1024E00000F018FC412000F007FC07B0F0BD000030
:1024F000006400406000002030380240000C0240C0
:1025000000680040000402407047000000B50F4A18
:10251000016889B01268914211D107AB6A46002167
:10252000FFF75FFD00280AD10098022809D0A0F526
:102530008060023803D106499DF81C00487009B03C
:1025400000BD07A9034807F06DFCF8E7E00600208E
:102550005C0200209C5900207047000000B50C4A26
:10256000016889B0126891420FD107AB6A46012118
:10257000FFF737FD002808D10098A0F580600138EA
:1025800003D104499DF81C00087009B000BD00008B
:10259000080700205C0200207047000070B5044668
:1025A00090F82000012804D0606A40F400206062A6
:1025B00018E0022084F820002068016821F0010161
:1025C000016000F009FB05460EE000BF00F004FBCF
:1025D000401B0A2808D9606A40F400306062052078
:1025E00084F82000012070BD20684068C007EDD14C
:1025F000606270BD704770477047704770477047A2
:1026000070472DE9F0410446876D00F0E5FA064673
:1026100094F835000025022806D08020606584F8F3
:1026200034500120BDE8F0812068016821F01601D6
:1026300001602068416921F080014161206C08B986
:10264000A06C20B12068016821F0080101602068B9
:10265000016821F0010101600CE000F0BDFA801B6F
:10266000052807D920206065032084F8350084F808
:102670003450D7E720680068C007EED194F85C10AA
:102680003F208840B860012084F8350084F8345039
:102690000020C7E790F83510022903D0802141655A
:1026A00001207047052180F835100068016821F08D
:1026B00001010160002070472DE9F84304464FF006
:1026C0000009CDF8009063484FF41651A56D0068DD
:1026D000B0FBF1F72E6894F85C10082000FA01F1C5
:1026E00031420FD021680A6852070BD50A6822F0E0
:1026F00004020A6094F85C108840A860606D40F0A5
:102700000100606594F85C104FF0010808FA01F0D0
:10271000304208D021684969090604D5A860606D77
:1027200040F00200606594F85C100420884030425C
:1027300008D021680968890704D5A860606D40F059
:102740000400606594F85C1010208840304218D076
:1027500021680968090714D5A86020680168490341
:1027600004D50068000308D5A16C07E00168C9051D
:1027700003D4016821F008010160216C09B12046F1
:10278000884794F85C1020208840304231D021687E
:102790000968C9062DD5A86094F835000528206879
:1027A000016806D0490347D5006800031DD4616C59
:1027B0001CE021F0160101602068416921F08001D0
:1027C0004161206C08B9A06C20B12068016821F03B
:1027D0000801016094F85C103F208840A86084F8EC
:1027E000358084F83490216D1FE0E16B09B12046FB
:1027F0008847606D00282BD0606DC00714D005207D
:1028000084F835002068016821F00101016000981A
:10281000401C0090B84203D820680068C007F6D179
:1028200084F8358084F83490E16C002910D001B030
:102830002046BDE8F04308470168C905D5D40168C2
:1028400021F01001016084F8358084F83490CCE7E1
:10285000BDE8F883700000202DE9F041044600F047
:10286000BBF906465CB1022084F83500002584F8E7
:1028700034502068016821F0010101600DE0012061
:10288000BDE8F08100F0A8F9801B052805D92020BB
:102890006065032084F83500F2E720680068C0070F
:1028A000F0D12268116820480140D4E9010318439F
:1028B000D4E903363343184363691843A3691843C3
:1028C000E3691843236A18430843616A042903D162
:1028D000D4E90B1319430843106020684069666A05
:1028E00020F0070130460E43012704280CD1A06ACE
:1028F0000643E06A40B12046FFF7AEF820B1402021
:10290000606584F83570BAE7206846612046FFF7B5
:102910008FF894F85C203F2191408160656584F8D0
:1029200035700020ACE700003F8010F02DE9F04149
:102930000446866D90F83400002501280DD0012052
:1029400084F8340094F835700020012F07D084F803
:10295000340002252846BDE8F0810220FBE702276B
:1029600084F8357060652046FFF7A0F894F85C1095
:102970003F208840B0602068016841F01601016086
:10298000206C20B12068016841F0080101602068D6
:10299000016841F001010160DCE7000070B5044608
:1029A00000F01AF90546601C02D00448007804447F
:1029B00000F012F9401BA042FAD370BD6400002061
:1029C00070470000044910B50A68024202D008604E
:1029D000FFF7F6FF10BD0000143C01402DE9F84F51
:1029E000DFF8BCA10022012503264FF00F090AF1F0
:1029F000040BAAF1040E00BF0B6805FA02F4234091
:102A0000A34270D10F7907F00307012F01D0022FE5
:102A100016D187684FEA420806FA08FC27EA0C0735
:102A2000D1F80CC00CFA08FC4CEA070CC0F808C03E
:102A30004768A7430C79C4F3001494403C434460B6
:102A40000C79E443A4070AD0C4684FEA420C06FAA2
:102A50000CF7BC438F6807FA0CF72743C7600C7963
:102A600004F00304022C12D1D40800EB840CDCF82F
:102A700020405707FF0E09FA07F824EA0804D1F8A6
:102A8000108008FA07F848EA0408CCF820800468A7
:102A90004FEA420C06FA0CF7BC430F7907F0030724
:102AA00007FA0CF7274307604C6814F4403F70D0D6
:102AB0003C4C276847F480472760246822F00307CE
:102AC00004F480440094384C07EB040CDCF808480C
:102AD00097074FEA177809FA08F7BC43334FB84213
:102AE00002D1002724E054E0314FB84201D1012740
:102AF0001EE0304FB84201D1022719E02E4FB842F4
:102B000001D1032714E02D4FB84201D104270FE073
:102B10002B4FB84201D105270AE02A4FB84201D114
:102B2000062705E0284FB84201D1072700E0082713
:102B300007FA08F72743CCF80878DAF80040574638
:102B4000D1F804C09C435FEACC2C00D51C433C6008
:102B5000DBF800405F46D1F804C09C435FEA8C2C50
:102B600000D51C433C60DEF800407746D1F804C035
:102B70009C435FEA8C3C00D51C433C60084F083FF7
:102B80003C68D1F804C09C435FEACC3C00D51C43B0
:102B90003C60521C102AFFF42FAFBDE8F88F0000F4
:102BA000083C01404438024000300140000002402F
:102BB0000004024000080240000C024000100240E5
:102BC0000014024000180240001C02400AB181615A
:102BD00070470904FBE70000014880687047000067
:102BE00064000020024881680278114481607047C7
:102BF000640000200B4810B5016841F400710160C9
:102C0000016841F480610160016841F480710160F4
:102C1000032000F09FF80F2000F006F800F050F8B5
:102C2000002010BD003C024030B50546204887B06A
:102C30000024016841F001010160006806A900F06C
:102C40000100009001A800F0CBFD0498B0B100F0A5
:102C5000EDFD400017494FF08042B0FBF1F11648FE
:102C6000491E026040F2E732C0E90324C0E90114C2
:102C7000846101F0B3FA040003D015E000F0D6FD42
:102C8000E8E70D4801F0ECFA04000DD11C2000F03B
:102C900033F8102D07D2002229461C2000F03AF804
:102CA0000648056000E0012407B0204630BD000062
:102CB0004038024040420F00500B002068000020C6
:102CC0000C4882B0016841F480410160006800F462
:102CD000804000900748001F016841F0805101606A
:102CE0000068002200F0805000900F21901E02B07A
:102CF00000F010B844380240002809DB00F01F0241
:102D0000012191404009800000F1E020C0F800114D
:102D100070470000F0B40E4B1B680C46C3F302234F
:102D2000C3F10705042D00D90425191D072901D277
:102D3000002300E0DB1E012606FA05F1491E2140B2
:102D400099409E40761E16403143F0BC06F0B9B85B
:102D50000CED00E0064900F0070208684FF6FF039B
:102D6000184040EA0220034A104308607047000000
:102D70000CED00E00000FA057047D0F8E00405F023
:102D8000FDB901EBC10200EB8202D0F8E004126A47
:102D900005F052B901EBC10200EB8202D0F8E00469
:102DA000D2F8602205F0A3B9D0F8E00405F0E8B944
:102DB0000A0601F00F0101EBC10100EB810101D511
:102DC000143101E001F51571006805F0BBBE70B566
:102DD000044601F00F002279904201D9012070BD14
:102DE0000B0601F00F0101EBC10104EB81014FF073
:102DF00001024FF0000502D54A75143103E081F855
:102E0000555201F515718D70087094F894040128DD
:102E100008D084F89424206805F024FD84F89454A4
:102E2000002070BD022070BD2DE9F04104460F0660
:102E300001F00F0000EBC00104EB81014FF001062F
:102E40004FF0000502D54E75143103E081F855525C
:102E500001F5157108708A600B714A7802B14883D8
:102E6000022B00D14D7194F89404012809D084F804
:102E70009464206805F07CFC284684F89454BDE8EE
:102E8000F0810220FBE710B501F00F0404EBC40150
:102E900000EB8101C1E998230023C1F8683281F871
:102EA000553281F85442837901F51571012B00D117
:102EB000CA618279006805F02DFD002010BD70B553
:102EC00004460D4601F00F002179884201D9012006
:102ED00070BD29064FF000064FF0010206D500EB49
:102EE000C00104EB81014A75143107E005EBC5010F
:102EF00004EB810181F8556201F515718A70087043
:102F000094F89404012807D084F89424206805F0EC
:102F1000D5FC280702D007E0022070BDA17904F299
:102F20009C42206805F072FC84F89464002070BD17
:102F300010B501F00F0404EBC40100EB8101C1E9FD
:102F4000082300238B6201234B7501F8144F83790A
:102F5000012B00D1CA618279006805F0DBFC0020FA
:102F600010BD00002DE9FC5F05680446284605F009
:102F700063FE00287DD1206805F08AFE002878D005
:102F8000D5F80808C0F30D20C4F8D404206805F073
:102F90007FFE800704D52068416901F0020141618C
:102FA000206805F075FEC10604F29C40009034D5FF
:102FB0002068816921F0100181612F6A07F00F00FC
:102FC00000EBC00004EB8006C7F3434006F515761E
:102FD000022802D0062811D01AE047F6F070074206
:102FE00016D0C7F30A1217462846F16805F054FEBA
:102FF000F0683844F0607069384408E008222846D8
:10300000009905F049FE7069C7F30A110844706120
:103010002068816941F010018161206805F038FE67
:1030200000034FF0080B4FF0000A4FF001097CD568
:103030000026206805F00BFE074674E0F80770D004
:10304000F1B2206805F01CFE8046C00707D005EBF2
:103050004611C1F8089B3146204603F07DFE5FEA29
:10306000087024D505EB4611C1F808BB2068016C37
:1030700000E023E200EB46100191D0F8082BFB4B57
:10308000994205D9110403D54FF40041C0F8081B3B
:10309000204600F04EFAF5490198884207D9A079F8
:1030A000012804D120680121009A05F0AFFB5FEAF6
:1030B000C86004D505EB46111020C1F8080B5FEA83
:1030C00088701DD56869000605D5D5F8040840F458
:1030D0008061C5F8041806EBC60004EB800090F888
:1030E000571200F51570012905D180F803A0F1B23F
:1030F000204600F0E9F905EB46110220C1F8080B63
:103100005FEA886004D505EB46102021C0F8081B53
:103110005FEA884005D505EB46104FF40051C0F832
:10312000081B7F08761C002F88D1206805F0B0FDB1
:1031300040036ED5206805F083FD0746002666E053
:10314000F80762D0F1B2206805F088FD8046C0071C
:1031500023D006F00F01D5F8342809FA01F18A438B
:10316000C5F8342805EB4611C1F80899A079012863
:103170000FD106EBC60004EB8000D0E90721114413
:10318000016236B9606A20B920680121009A05F011
:103190003DFBF1B22046FFF7F4FD5FEA087003D56E
:1031A00005EB4611C1F808B95FEAC86004D505EB24
:1031B00046111020C1F808095FEA486004D505EB04
:1031C00046104021C0F808195FEA887016D53146CC
:1031D000284605F006FD06EBC60004EB8000C17D25
:1031E0001430012905D180F803A0F1B2204600F087
:1031F00067F905EB46110220C1F808095FEA08608B
:1032000003D53146204603F00DFE7F08761C002FC3
:1032100096D1206805F03CFD002811DAD5F80408A5
:1032200020F00101C5F8041894F8CC0401282BD033
:10323000204600F063F92068416901F000414161D6
:10324000206805F025FD00050BD5D5F80808C00756
:1032500002D0204600F074F92068416901F4006151
:103260004161206805F014FDC00467D5D5F8040855
:1032700020F00100C5F804081021206805F0B1FC19
:1032800000214FF67F3220E084F8CCA400212046B4
:10329000FFF772FDCFE700BF05EB4110C0F808292A
:1032A000D0F8003923F40013C0F80039C0F8082B17
:1032B000D0F8003B23F40013C0F8003BD0F8003BEB
:1032C00043F00063C0F8003B491C20798842E3D8F2
:1032D000D5F81C0840F00111C5F81C18E07B002847
:1032E00028460DD0D0F8840840F00B01C5F88418AA
:1032F000D5F8440840F00B012846C5F844180DE005
:10330000D0F8140842F22B010843C5F81408D5F888
:10331000100840F00B012846C5F81018D0F8000836
:1033200020F4FE61C5F80018A1792068009A05F024
:103330006DFA2068416901F480514161206805F00F
:10334000A7FC800415D5206805F052FA206805F026
:1033500066FCE07100F064FA0146E279206805F04D
:10336000CBFC204600F0B4F82068416901F400511C
:103370004161206805F08CFC000707D5204600F06D
:10338000C1F82068416901F008014161206805F039
:103390007FFC000616D5A86920F08001A9610126EE
:1033A0000DE000BF06EBC60004EB800090F857026A
:1033B000012803D1F1B22046FFF7FAFC761C2079F0
:1033C000B042EFD8206805F063FCC0021FD501268B
:1033D0004F4614E005EB4610D0F8001906EBC60086
:1033E00004EB8002107E012808D1002906DAF0B231
:1033F00040F08001D7752046FFF7DAFC761C207973
:10340000B042E7D82068416901F480114161206829
:1034100005F03EFC800234D501204A4629E000BF79
:1034200005EB4011D1F8001B00EBC00304EB830354
:1034300093F85862012E1BD1002919DA94F8D4644C
:1034400001F4803106F00106B14211D183F8572210
:10345000A96941F08003AB616969090608D4D5F810
:10346000040840F40070C5F8040805E00A30544F21
:10347000401C21798142D3D82068416901F40011B0
:103480004161206805F004FC400007D52046FFF7A5
:1034900074FC2068416901F080414161206805F0B9
:1034A000F7FB40070AD520684568680702D5204623
:1034B000FFF77AFC2068416829434160BDE8FC9F22
:1034C000D0F8E00404F07ABED0F8E00404F08ABE3C
:1034D00070B50446C079012570B1022801D0FEF70D
:1034E0007DFC2946D4F8E00404F0EAFED4F8E004B8
:1034F000BDE8704004F09FBE0025F2E7D0F8E0047C
:1035000004F0C7BED0F8E00404F0CDBE10B5044608
:1035100090F8940401280AD0012084F8940461747E
:10352000206805F0D8FB002084F8940410BD022028
:1035300010BDD0F8E02400F29C41104604F0CCBE4F
:1035400010B50446D0F8E00404F0FFFE2068D0F87F
:10355000001E41F00101C0F8001EE07A002804D0EE
:103560000248016841F00601016010BD10ED00E065
:103570002DE9F843054600684FF00109C1074FF0F7
:10358000000601D1400727D5DFF80C81C8F8686034
:10359000FFF722FB0746414C05E000BFFFF71CFB8D
:1035A000C01B022857D820680001F7D46868810141
:1035B000287A41EA0070394984310860C8F8689077
:1035C000FFF70AFB074604E0FFF706FBC01B0228D3
:1035D00041D820680001F7D52878800752D52F48B8
:1035E0004030016841F08051016000682C4C00F0CF
:1035F00080500090206840F480702060FFF7ECFA63
:10360000074604E0FFF7E8FAC01B022823D8206829
:10361000C005F7D5214C7034206810F4407020D0DC
:10362000A98901F4407181421BD020681D4920F412
:103630004070C1F800900E6020602068C00710D074
:10364000FFF7CAFA064641F2883707E0FFF7C4FAE7
:10365000801BB84202D90320BDE8F88320688007A8
:10366000F4D5E9680D48C1F301220830032A0BD0D4
:10367000016821F4F81101602068A989C1F30B01E8
:10368000084320600020E7E70268074B22F4F812A5
:1036900019400A430260EFE7000047420038024049
:1036A00000700040400E4742FFFCFF0F2DE9F0473D
:1036B0000E46050065D0DFF81481D8F80000F7B297
:1036C00000F00700B04207D288F80070D8F8000078
:1036D00000F00700B04254D128683D4C810712D554
:1036E000400703D5206840F4E050206028780007A8
:1036F00003D5206840F4604020602068A96820F06D
:10370000F000084320602878C0072DD03049686851
:103710000839012812D0022813D0032811D00968D3
:10372000890700292DDA216821F003010143216076
:10373000FFF752FA814641F2883A0EE009688903A0
:10374000EFE709688901ECE7FFF746FAA0EB09010A
:10375000514502D90320BDE8F0872068696800F070
:103760000C00B0EB810FEFD1D8F80010404601F00B
:103770000701B14207D90770006800F00700B042A6
:1037800001D00120E7E72878400705D52068E968DF
:1037900020F4E050084320602878000706D5206810
:1037A000296920F4604040EAC100206000F05EF822
:1037B0002168084AC1F30311515CC84006490860FA
:1037C00006480068FFF730FA0020C4E7003C0240DA
:1037D0000838024038BD0008700000206800002052
:1037E0000F2202600C4A136803F00303436013685E
:1037F00003F0F0038360136803F4E053C3601268BE
:103800004FF4E05303EAD20202610448006800F07A
:10381000070008607047000008380240003C024082
:103820000148006870470000700000200448054906
:1038300000680968044AC1F38221515CC84070479E
:10384000700000200838024048BD000804480549BF
:1038500000680968044AC1F34231515CC8407047AE
:10386000700000200838024048BD0008154810B517
:10387000006810F00C02144813D01449042A0FD029
:10388000082A0ED10F4C241F2268236802F03F0241
:103890005B0207D52068C0F38810A0FB010106E099
:1038A000084610BD2168C1F38811A1FB0001002367
:1038B000FDF73AFA2168C1F30141491C4900B0FB08
:1038C000F1F010BD083802400024F400001BB700DE
:1038D0002DE9F84F04006ED02078DFF84C93C00734
:1038E000A9F104054AD009F104000168C1F381017E
:1038F000012908D00068C0F3810002280AD1D9F854
:103900000000400206D52868800337D5606800288B
:10391000E1D033E06068B0F5803F10D0B0F5A02F63
:10392000286810D020F480302860286820F4802097
:1039300028606068A8B1FFF74FF906460DE02868D7
:1039400040F48030F4E740F480202860F7E700BFBF
:10395000FFF742F9801B642873D828688003F7D5E5
:103960000CE0FFF739F9064605E000BFFFF734F930
:10397000801B6428F0D828688003F7D42078DFF80B
:10398000AC8280074FF0000A3ED5A748001D0168B1
:1039900011F00C0F08D00068C0F3810002280BD191
:1039A000D9F80000400207D42868800716D5E068DF
:1039B000012800D112E033E1E068B8B10120C8F875
:1039C0000000FFF709F9064605E000BFFFF704F91C
:1039D000801B0228C0D828688007F7D5286821698D
:1039E00020F0F80040EAC10028600DE0C8F800A00F
:1039F000FFF7F2F8064604E0FFF7EEF8801B022816
:103A00001FD828688007F7D42078000722D5864F72
:103A100087486169703771B101210160FFF7DCF8F7
:103A2000064604E0FFF7D8F8801B022809D838685A
:103A30008007F7D50EE0C0F800A0FFF7CDF80646E6
:103A400005E082E0FFF7C8F8801B02287DD83868BF
:103A50008007F7D42078400768D5DFF8CCB100277D
:103A60000BF13C0BDBF80000C0000BD4DBF80010BE
:103A700041F08051CBF80010DBF80000012700F086
:103A8000805000906B4E3068C00510D4306840F410
:103A900080703060FFF7A0F8009005E0FFF79CF819
:103AA0000099401A022850D83068C005F6D55E4EFD
:103AB000A0686C3601280FD00528306810D020F09F
:103AC00001003060306820F004003060A068B8B1B8
:103AD000FFF782F800900FE0306840F00100F4E753
:103AE00040F004003060F7E7FFF776F80099411ADC
:103AF00041F28830814266D830688007F4D50EE004
:103B0000FFF76AF8009007E0FFF766F80099411A9E
:103B100041F28830814256D830688007F4D42FB102
:103B2000DBF8001021F08051CBF80010A069C8B379
:103B30003D49091D0968C1F3810102294AD00228C3
:103B4000504607D0C8F8600000E03CE0FFF744F8BA
:103B500004463BE04746C8F86000FFF73DF80646DC
:103B600005E000BFFFF738F8801B02282BD8286833
:103B70008001F7D4D4E907010843A16A2E4A490815
:103B800002EB0141626A41EA8211084394F82C1069
:103B900040EA0161C9F8001001203866FFF71CF8FF
:103BA000044606E03EE000BFFFF716F8001B0228BF
:103BB00009D828688001F7D534E000BFFFF70CF87A
:103BC000001B022802D90320BDE8F88F2868800175
:103BD000F4D427E00128F7D0D9F80000E26900F416
:103BE000800191421CD1226A00F03F01914217D11D
:103BF00047F6C071626A0140B1EB821F10D1A26A20
:103C00004FF0FF3300F4403103EB5202B1EB024FAF
:103C100006D194F82C1000F07060B0EB016F01D069
:103C20000120D1E70020CFE70438024000004742DE
:103C3000800E4742007000400000FFFF10B50400F6
:103C400002D0607F10B106E0012010BD0020207777
:103C5000204600F041F8022060772068C168C9431F
:103C6000C90632D5CA2141622168532048622046E4
:103C700003F0D0FB20BB20688168164A11408160A8
:103C80002168886862681043D4E904231A4310430A
:103C900088602168E068086120680169228941EA3A
:103CA00002410161204603F0D9FB48B921680A6C42
:103CB00022F480220A6421680A6CA3691A430A6408
:103CC0002268FF21516208B110BD002001216177F7
:103CD00010BD0000BFFF8FFF1FB5002100910191B3
:103CE000029103910068084988420CD1022000909B
:103CF000064803906846FFF73BFC08B1FEF76EF8F4
:103D00000349012008601FBD0028004000031E0079
:103D10003C0E474270B504460B482168C860FEF768
:103D20005BFF05464FF47A7607E000BFFEF754FFCD
:103D3000401BB04201D9032070BD2068C0688006D6
:103D4000F4D5002070BD00005F7F010070B5040055
:103D500009D0606A002540B125616561A56294F8CB
:103D6000510040B10CE0012070BD6068B0F5827F69
:103D7000F4D0E561F2E784F85050204600F044F8B2
:103D8000022084F851002068016821F040010160A0
:103D9000A088218900F4827001F404410843A189BC
:103DA00001F400610843217C01F002010843217DF8
:103DB00001F001010843218B01F400710843217FC8
:103DC00001F03801084394F8201001F08001084305
:103DD000218D01F40051084321680860A069042185
:103DE00001EA104094F8241001F010010843216802
:103DF00048602068C16921F40061C16165650120E6
:103E000084F85100002070BD2DE9F04387B00646CC
:103E100014216846FCF7D2FF34493068884261D1EA
:103E200033480025016841F480510160006800F4C6
:103E3000805005902E481438016841F0020101605D
:103E4000016801F002010591016841F00101016082
:103E50000068022400F001000590182001274FF0AF
:103E600003084FF005098DE8910369462148FEF7E4
:103E7000B5FD80208DE8910369461F48FEF7AEFD31
:103E80001F4C1E484FF0C0672060C4E901754FF415
:103E90008068C4E9035865617812A561C4E90750D8
:103EA00020466562FEF7D8FC08B1FDF797FFF46481
:103EB000A663134C114860341830E4E80207402030
:103EC000A4E82101C00244F81459A561C4E90750CF
:103ED0000B4865626030FEF7BFFC08B1FDF77EFF5E
:103EE000B464A66307B0BDE8F08300000030014071
:103EF0004438024000040240000002404064024096
:103F0000A80700202DE9FF4F81B0044690F850002B
:103F100000260E9F1D4693464FF0010901280FD041
:103F20004FF0010A84F850A0FEF756FE804694F840
:103F30005100616801280DD0B1F5827F08D103E0FE
:103F4000022005B0BDE8F08FA16809B9042801D0AE
:103F50000226C9E00298002865D0BBF1000FFBD013
:103F6000002DF9D094F85100042802D0052084F8DF
:103F7000510000206065C4F838B0E587A587029934
:103F80002163E586A586206460642068016849068F
:103F900003D4016841F040010160E068B0F5006FB2
:103FA000606803D0F0B3012D47D081E008B1012D46
:103FB0003CD1206B21680088C860206B801C206386
:103FC000E08E401EE08631E02068816889070FD5C9
:103FD000E18E69B1B9F1010F0AD1216B0988C16085
:103FE000206B801C2063E08E401EE0864FF00009AD
:103FF00020688168C9070CD0E18F51B1C068A16BFE
:104000000880A06B801CA063E08F401EE0874FF00B
:104010000109FEF7E1FDA0EB0800B84206D3781CC9
:1040200004D001E009E05BE003265BE0E08E0028BD
:10403000CAD1E08F0028C7D140E0206B216800780A
:104040000873206B401C2063E08E401EE0862FE04A
:104050002068816889070FD5E18E69B1B9F1010F38
:104060000AD1216B09780173206B401C2063E08E1C
:10407000401EE0864FF0000920688168C9070CD017
:10408000E18F51B1C068A16B0870A06B401CA063A8
:10409000E08F401EE0874FF00109FEF79DFDA0EB89
:1040A0000800B84202D3781C02D0BAE7002FB8D07B
:1040B000E08E0028CCD1E08F0028C9D14246394695
:1040C000204603F0E1F918B10126202060650BE0DD
:1040D000A06818B92068C16880680090606D08B158
:1040E000012601E084F851A0002084F850003046F9
:1040F00027E77047704710B590F83C20012A22D07E
:10410000012280F83C20CA688C6822F44072224365
:104110004C6822F4806222430C6822F4006222433D
:104120000C6922F4805222434C6922F4005222434B
:10413000C969002322F480420A4301684A6480F876
:104140003C30002010BD022010BD000070B590F87A
:104150003C20012A32D0012480F83C40022280F821
:104160003D2003685A689D6822F070060A68324351
:104170005A60134B02689A4214D0B2F1804F11D0AA
:10418000104B9A420ED0104B9A420BD00F4B9A42D2
:1041900008D00F4B9A4205D00E4B9A4202D00E4BDC
:1041A0009A4204D1496825F080031943916080F850
:1041B0003D40002180F83C10084670BD022070BDD3
:1041C000000001400004004000080040000C0040D6
:1041D00000040140004001400018004010B50400F8
:1041E00003D094F83D0010B107E0012010BD00207D
:1041F00084F83C00204600F01FF8022084F83D00BF
:10420000211D206803F052FA012084F8460084F84A
:104210003E0084F83F0084F8400084F8410084F8B0
:10422000420084F8430084F8440084F8450084F890
:104230003D00002010BD000008B500680649884216
:1042400008D10648016841F400310160006800F4BB
:104250000030009008BD0000004401404438024096
:1042600090F83D10012901D001207047022180F80B
:104270003D100168CA6842F00102CA600068114935
:10428000884214D0B0F1804F11D00F4988420ED02F
:104290000E4988420BD00E49884208D00D49884209
:1042A00005D00D49884202D00C49884204D181686A
:1042B00001F00701062903D0016841F00101016006
:1042C000002070470000014000040040000800404A
:1042D000000C004000040140004001400018004074
:1042E00070472DE9F04104460068C66805694FF043
:1042F0000007A90713D5B10711D5F91E01610120E7
:104300002077206880698007204602D0FFF7E8FF09
:1043100004E000F0C3F8204600F068F9277768074A
:1043200016D5700714D521686FF0040008610220CB
:1043300020772068806910F4407F204602D0FFF784
:10434000CFFF04E000F0AAF8204600F04FF92777ED
:10435000280715D5300713D521686FF008000861CC
:10436000042020772068C0698007204602D0FFF72C
:10437000B7FF04E000F092F8204600F037F9277705
:10438000E80616D5F00614D521686FF01000086114
:10439000082020772068C06910F4407F204602D0B2
:1043A000FFF79EFF04E000F079F8204600F01EF9C8
:1043B0002777E80708D0F00706D021686FF00100E2
:1043C0000861204600F078F9280608D5300606D5A1
:1043D00021686FF0800008612046FFF78AFE6806BA
:1043E00008D5700606D521686FF0400008612046A8
:1043F00000F069F9A8060AD5B00608D521686FF063
:10440000200008612046BDE8F041FFF773BEBDE81B
:10441000F081000010B586B0044614216846FCF710
:10442000CDFC2368184C002118480222A34212D167
:10443000036843F010030360006800F0100005906B
:104440004FF420600090CDE901210120CDE9031057
:1044500069460F4813E00F4CA34212D1036843F0A2
:1044600020030360006800F02000059040200090C9
:10447000CDE901210320CDE9031069460648FEF786
:10448000ADFA06B010BD0000000001403038024017
:10449000001002400044014000140240704770B513
:1044A000044690F83C0000260D4601280FD001205C
:1044B00084F83C006AB1042A1DD0082A2FD00C2AA7
:1044C0003FD00126002084F83C00304670BD022019
:1044D00070BD206803F064F92068816941F008012B
:1044E00081612068816921F004018161206881690E
:1044F0002A69114311E0206803F082F9206881697C
:1045000041F4006181612068816921F480618161E9
:10451000206881692A6941EA02218161D2E7206825
:1045200003F0A4F92068C16941F00801C161206865
:10453000C16921F00401C1612068C1692A69114380
:1045400011E0206803F0C6F92068C16941F40061F8
:10455000C1612068C16921F48061C1612068C169BD
:104560002A6941EA0221C161ACE710B5040003D019
:1045700094F83D0010B107E0012010BD002084F840
:104580003C00204600F01EF8022084F83D00211D6A
:10459000206803F08BF8012084F8460084F83E0080
:1045A00084F83F0084F8400084F8410084F8420019
:1045B00084F8430084F8440084F8450084F83D0002
:1045C000002010BD08B500680649884208D1064899
:1045D000016841F001010160006800F001000090F5
:1045E00008BD000000000140443802407047000050
:1045F00010B50446022249B104290ED0082913D06F
:1046000094F84100012816D0012010BD94F83E0016
:104610000128F9D184F83E200FE094F83F000128EA
:10462000F2D184F83F2008E094F840000128EBD153
:1046300084F8402001E084F841200122206803F042
:10464000A1F816492068164A884201D0904203D149
:10465000436C43F4004343642068884213D0B0F1B4
:10466000804F10D00F4988420DD00F4988420AD0A0
:104670000E49884207D0904205D00D49884202D0A9
:104680000C49884204D1816801F00701062903D052
:10469000016841F001010160002010BD00000140EF
:1046A000000401400004004000080040000C0040ED
:1046B00000400140001800400068B0F1804F01D177
:1046C000FEF790BA7047704770477047F8B50168B9
:1046D00004460868CA684B6910F00F0F4FF00005D8
:1046E00059D003F0010602F49077374365D0C10733
:1046F00005D0D10503D5616C41F00101616441072A
:1047000005D5D90703D0616C41F0020161648107CE
:1047100005D5D90703D0616C41F00401616401073C
:1047200007D502F02001314303D0616C41F008014C
:104730006164616C00293AD0800604D5900602D5E8
:10474000204603F00DFA20684069616CC0F38010C8
:10475000090700D460B3204603F0CDF92068406912
:10476000400621D52068143050E8001F21F0400198
:1047700040E80012002AF5D1E06BA8B16E4901654E
:10478000E06BFDF787FF002811D0E06B016D01B0F1
:10479000BDE8F040084783060FD593060DD52046A7
:1047A000BDE8F84003F0DCB92046FFF78EFFF8BD06
:1047B0002046FFF78AFF6564F8BD266B2023012E93
:1047C0007DD1C6067BD5D60679D5086848680090A5
:1047D00048694FF00206400641D5E16B0868406821
:1047E0000004000CE8D0A28D8242E5D9E085C869BA
:1047F000B0F5807F2DD020680C3050E8001F21F4E8
:10480000807140E80012002AF5D12068143050E889
:10481000001F21F0010140E80012002AF5D12068B4
:10482000143050E8001F21F0400140E80012002A37
:10483000F5D184F84230256320680C3050E8001F21
:1048400021F0100140E80012002AF5D1E06BFDF7DD
:10485000D8FE6663A08DE18D401A81B22AE0A08D5A
:10486000E18D401A81B2E08D0028A5D00029A3D0A7
:1048700022680C3252E8000F20F4907042E80007E2
:10488000002FF5D12068143050E8002F22F00102EB
:1048900040E80027002FF5D184F8423025632068D6
:1048A0000C3050E8002F22F0100240E80023002BCB
:1048B000F5D166632046FFF707FFF8BDFFE7050661
:1048C0002BD5150629D594F841002128F5D1A068EB
:1048D000B0F5805F01D12069B0B1206A411C21622E
:1048E000216800784860E08C401E0004000CE084E1
:1048F000E3D12068C16821F08001C1602068C168EF
:1049000041F04001C160D8E7206A0088C0F3080088
:104910004860206A801C2062E5E74006CDD550063D
:10492000CBD5CA68204622F04002CA6084F84130E4
:1049300000F092F9C1E70000517A000870B5040058
:1049400004D094F84100002510B106E0012070BDAC
:1049500084F84050204600F023F8242084F84100D9
:104960002068C16821F40051C160204603F05AF963
:104970002068016921F4904101612068416921F0BA
:104980002A0141612068C16841F40051C160656439
:10499000202084F8410084F842006563002070BD47
:1049A0002DE9F04F87B0044614216846FCF706FA5B
:1049B0007F48DFF8F8811438D4F800C07C4902221F
:1049C00003230726002507154FF4003B4FF0006A2C
:1049D000C4456CD1D1F800C04CF0100CC1F800C037
:1049E000096801F010010591016841F002010160C0
:1049F000016801F002010591016841F001010160C7
:104A00000068CDE9025300F0010005908020CDE957
:104A1000000291469846694604966648FDF7DEFF17
:104A20007810CDE90009CDE902586946049662483C
:104A3000FDF7D4FFDFF8888160494046C8F80010D0
:104A4000C0E901A5C0E90357C8F81450C8F81850C8
:104A5000C8E9075B5646B946C8F82450FDF7FCFE86
:104A600008B1FDF7BBF9564F5448C4F83C80603795
:104A70003030C8F83840E7E802064020A7E82102B5
:104A8000800247F81459BD61C7E907504C487D6260
:104A90006030FDF7E1FE08B1FDF7A0F9A763002241
:104AA00005212520BC63FEF735F925203DE0DFF820
:104AB0001481C4453ED13E49091FD1F800C04CF4D1
:104AC000802CC1F800C0096801F4802105910168BB
:104AD00041F0040101600068694600F0040005909F
:104AE0004FF440608DE82500CDE903363648FDF7E8
:104AF00075FF334E3548C0363060C6E901A5C6E9BA
:104B0000035780157561C6E90650356230467562F7
:104B1000FDF7A2FE08B1FDF761F9E6630022052169
:104B20002720B463FEF7F6F82720FEF7E5F807B074
:104B3000BDE8F08F264EB445F9D10E6846F0200648
:104B40000E60096801F020010591016841F0400103
:104B500001600068694600F0400005904FF4844011
:104B60008DE825000820CDE903301A48FDF736FF0F
:104B70001248194E603830608005C6E90105C6E963
:104B800003577561B561C6E9075B30467562FDF78D
:104B900063FE08B1FDF722F9E663002207214720F2
:104BA000B463FEF7B7F84720BFE7000000100140EC
:104BB0004438024000040240000002408864024081
:104BC000D009002000480040000802402860024050
:104BD0000014014000180240F00A00207047000055
:104BE00070B5044690F84100202801D0022070BD25
:104BF00049B342B32162A284E2840020606421238D
:104C000084F84130A56B114BEB63A56B104B2B6403
:104C1000A56B104BEB64A36B1865256813462A1D22
:104C2000A06BFDF783FE21686FF0400008602068EC
:104C3000143050E8001F41F0800140E80012002AC3
:104C4000F5D1002070BD012070BD0000AB7A0008D6
:104C5000ED7A0008617A00087047704770B5044625
:104C600000203C4D2074A27B288861684243D4F820
:104C7000F400FCF78AF8A17B288841436068FCF7C0
:104C80009DF8A07B10FB00F128884143D4F818015F
:104C9000FCF794F8207BA17B10FB01F128884143AD
:104CA000D4F80C01FCF78AF800202BE0D4F8F410BB
:104CB00001EB800292ED000AB5EEC00AF1EE10FAA7
:104CC0001ED0227C01EB820181ED000A227C616A08
:104CD0008854A169227B01EB8001237C91ED000ABD
:104CE0006169095C12FB03116FF0030202EB8101A1
:104CF000D4F80C21114481ED000A217C491C217457
:104D0000401CC0B2A17B8142D0D8002010E0636A71
:104D1000E2691B5C02EB830292ED000A10FB0101C9
:104D2000D4F81821401C02EB8101C0B281ED000AC9
:104D3000217C8142EBD8C8B224F8780F14F86C0CAF
:104D4000608020816181218361832084618424F8D3
:104D5000301C70BDDE000020FEE70000F0B58D4C79
:104D60000F462DED068B054687B01646D0ED040A9A
:104D700094ED050A884830EEC00AB0EEC00A10EE85
:104D8000101A814219DC95ED050A94ED061A30EEF1
:104D9000410AB0EEC00A10EE101A81420DDC95ED0A
:104DA000060A94ED071A30EE410AB0EEC00A10EE82
:104DB000101A814201DC2878F0B39FED789A80EEDA
:104DC000890AFBF75FFAF0EE400AF0EE609AD5ED43
:104DD000050A80EE890AFBF755FAD5ED060AF0EED2
:104DE000401A80EE890AB0EE61AAFBF74BFAD5EDC6
:104DF000040AF0EE40AA80EE890AFBF77FFAF0EE93
:104E0000400AB0EE608AD5ED050A80EE890AFBF70C
:104E100075FAD5ED060AF0EE408A80EE890AFBF7B6
:104E20006DFA29EEAA2A68EE280AB0EE401AB0EE12
:104E3000420A00EE810A00E02BE084ED080A2AEE27
:104E4000080A6AEE880A002084ED090A29EE810A20
:104E500000EEE80A84ED0A0A29EEA80A20EE010A0B
:104E60000AEEC80A84ED0B0A29EE8A0A84ED0C0AC0
:104E700028EE410A02EE680A84ED0D0A2AEE410A84
:104E800084ED0E0A2AEE2A0AC4ED0F8A84ED100A78
:104E9000287000204FEA0D0107EB800292ED000A16
:104EA00005EB8002D2ED010A01EB8002401C20EEEE
:104EB000200AC0B2032882ED000AEDD39DED000A5E
:104EC000D4ED085A9DED011A94ED094A20EE252AE9
:104ED000DDED020AD4ED0A1A002004EE012A03A92E
:104EE00001EEA02A87ED002A94ED0B3AD4ED0C2AAE
:104EF00094ED0D2A60EE033A42EE813A42EE203AFA
:104F0000C7ED013AD4ED0E3AD4ED0F4A94ED105AA4
:104F100020EE230A04EE810A05EE200A87ED020A3C
:104F200006EB800292ED000A01EB8002401CC0B249
:104F300082ED000A0328F3D39DED031ADDED040A88
:104F40009DED050A61EE255A44EE205A41EE805A45
:104F500061EE031A21EE231A42EEA01A04EEA01A03
:104F6000C6ED005A42EE001A05EE001AC6ED011A0F
:104F700086ED021A95ED040A84ED050A95ED050A01
:104F800084ED060A95ED060A84ED070A07B0BDEC2C
:104F9000068BF0BD600200206F12833AE12E65425D
:104FA00010B504462DED048BD0F8EC00D0ED009A3E
:104FB00090ED019AD0ED028A29EEA90A90ED038ABC
:104FC00009EE090A08EEA80A08EE080A05F0B8F882
:104FD0005FF00000D4F8EC1001EB8001401CD1ED33
:104FE000000AC0B2042860EE800AC1ED000AF1D3C5
:104FF0003E48D4F8001190ED6F0A60EE090AB6EE53
:10500000000A60EE800AC1ED040AD0ED6F0AD4F800
:10501000001160EEA80A60EE800AC1ED050AD0ED2D
:105020006F0AD4F8001120EEA91AFEEE000A21EE54
:10503000201A81ED0A1A90ED6F1AD4F8001121EEB2
:10504000081A21EE001A81ED0B1A90ED6F1AD4F8B0
:10505000001121EE081A21EE201A81ED101A90EDB0
:105060006F1AD4F8001121EE291A21EE201A81EDD1
:10507000111A90ED6F1AD4F8001121EE281A21EEC2
:10508000000A81ED160A90ED6F0AD4F8001120EEA7
:10509000090A20EE200A81ED170AD4F8F810D0EDA5
:1050A000740A91ED1C0A80EE201A81ED1C1AD4F8C6
:1050B000F810D0ED740A0E4891ED230A80EE201A04
:1050C0009FED0C0A81ED231AD4F8F8100A6F824282
:1050D00001DD81ED1C0AD4F8F810D1F88C20824251
:1050E00001DD81ED230ABDEC048B10BDA05600202C
:1050F00000401C4600401C4670B52C4C01252DED8F
:10510000028B04F5D8702570B7EE008A80EC030A94
:1051100000209FED270A84ED730A84F83801C4E962
:105120005000C4E9520011EE900AB0F17E5F01DD3B
:10513000F0EE481AC4ED741A84ED642A03230022A9
:105140000621201D00F026FE1A4B01221146A3F174
:105150000800FBF7A1F954F8EC0F9FED170A902215
:1051600080ED008A54F86409184980ED010A606EE8
:1051700080ED020A606E80ED030A1048A0641048BA
:10518000E064104820651048606504F85A5C04F833
:10519000595CE06FFBF7F9FD606F9022BDEC028B6C
:1051A0000B49BDE87040FBF7F0BD0000A0560020A1
:1051B00077CC2B326858002000000000D551000841
:1051C000A14F000809520008E156000850BD000830
:1051D0008801002010B50446902254F8F81F0848B2
:1051E000FBF7D3FD48220748616AFBF7CEFD05486F
:1051F00061694822BDE810404830FBF7C6BD000099
:10520000880100208058002070B50446B0EE000AE6
:1052100054F8EC0F2B4DD0ED000A60EE800AC5ED7E
:10522000090AD0ED010A60EE800AC5ED0A0AD0ED48
:10523000020A60EE800AC5ED0B0AD0ED030A20EEEB
:10524000800A85ED0C0A14F8DE0C14F8E01C10FB43
:1052500001F11D4800884143206AFBF7AFFDD5ED01
:105260000B1A206AB1EE612A80ED002A206AD5ED82
:105270000C0AC0ED010A95ED090A206AB1EE401A48
:1052800080ED021A206A95ED0A1A80ED031A206A51
:1052900080ED061A206A80ED070A206AC0ED080A30
:1052A000206AC0ED091A206A80ED0C0A206AB1EE6E
:1052B000410A80ED0D0A206A80ED0E2A206AC0EDB9
:1052C0000F0A70BD44010020DE00002070B5F74CCD
:1052D0002DED088BB0EE438AF0EE629AB0EE42AA52
:1052E000F0EE61AA2078B0EE419AB0EE60BAF0EE2E
:1052F00040BADFEDEF8A58B9B0EE682AF7EE001A2F
:105300009FEDEC1ADFEDEC0AB2EE040AFFF7F4FEB3
:1053100084ED6F8A94ED580AE84D90227BEEC00A26
:10532000E749C4ED5B0A94ED590A3BEE401A84ED5F
:105330005C1A94ED5A0A79EE401AB6EE000A60EE55
:10534000800AC4ED5D1A60EE880AC5ED000A61EEC0
:10535000000A21EE800A60EE880A20EE080AC5EDF8
:10536000010A85ED020AD4F8040104F58274FBF702
:105370000CFD95ED000A2068B1EE402A80ED012A6F
:1053800095ED011A2068F1EE412AC0ED022AD5ED13
:10539000021A2068F1EE610AC0ED030A206880ED70
:1053A000060A2068C0ED081A2068C0ED092A2068A6
:1053B00080ED0C1A2068C0ED0D0A206880ED0F0A00
:1053C0002068C0ED121A206880ED131A54F8440BBF
:1053D00080ED142A74E85201084305D1C4ED5EAA99
:1053E00084ED5FAAC4ED609A94ED5E0AD4ED640A80
:1053F00094ED6F1A20EE202A31EE200AC2EE001A38
:1054000021EE2A2AC2EE002A31EEA22A84ED5E2A7B
:10541000D4ED5F1A61EEA02AC2EE801A61EE0A2A6C
:1054200021EE291A82EE803A71EE831AC4ED5F1ADA
:10543000D4ED602A62EEA02AC2EE800AC1EE002AF4
:1054400022EE020A01EEA10A70EEA20AC4ED600A81
:1054500000EEA00A04F074FE85ED030A5FF0000080
:1054600004EB8001D1ED5E0AA16801EB800160EEE2
:10547000800A401CC0B2C1ED000A0328F0D394EDAD
:105480005B0AD4ED5C0A20EE000A00EEA00AD4ED1F
:105490005D0A00EEA00A04F053FEB7EE008A8949C7
:1054A000C8EE000AC4ED650A95ED031A10EE900AE5
:1054B00088EE010A884284ED660A0BDA10EE100AC3
:1054C0008149884206DD10EE100A8049884201DADF
:1054D000012000E0002084F8390194ED6C0AD4ED3D
:1054E0006F0AD4F8180120EE200A80ED000A94ED2E
:1054F0006C0AD4ED6F0AD4F8180120EE200A80ED72
:10550000070A94ED6C0AD4ED6F0AD4F8180120EE66
:10551000200A80ED0E0A94ED6C0AD4ED6F0AD4F8DF
:10552000180120EE200A80ED150A94ED6D0AD4EDE5
:105530006F0AD4F8180120EE200A80ED1C0A94EDC1
:105540006D0AD4ED6F0AD4F8180120EE200A80ED20
:10555000230AD4F81C0194ED6E0A80ED000AD4F8F9
:105560001C0194ED6E0A80ED040AD4F81C0194ED40
:105570006E0A80ED080A201D00F0F6FE606890EDCE
:10558000001A84ED541A90ED010A61EE012A84EDAF
:10559000550AD0ED021AC4ED561A90ED032A40EEDA
:1055A000002A84ED572AD0ED040A21EE021AC4ED38
:1055B000580AD0ED050AC4ED590A00EE211AC4EDCF
:1055C0005A8AF0EE008AF0EE480A52EEA80A21EE5E
:1055D000280A03F0A9FD9FED3E9AF0EE480A20EE5E
:1055E000090A84ED6A0A94ED541A94ED570A61EEA3
:1055F000011A40EE001A51EEA80AD4ED551A21EE18
:10560000211AD4ED561A01EE801A21EE280A03F071
:105610008BFD20EE090A84ED690A94ED550AD4ED5C
:10562000570A94ED561A20EE200AD4ED540A00EEE3
:10563000C10AF8EE000A20EE200A03F0DFFC20EE9B
:10564000090A244984ED680A94ED6A0AD4ED760AC1
:1056500070EE600A10EE900A884203DDB4F8D401BF
:10566000401E07E010EE900A1B49884204D9B4F8A6
:10567000D401401CA4F8D401B4F9D401DFED171A09
:1056800000EE900AB8EEE01AF0EE400A41EE210A70
:10569000C4ED6B0A84ED760AF4E95201401C41F135
:1056A0000001C4E90001BDEC088B70BDA0560020CC
:1056B000000000008096184B6F12833A44010020CE
:1056C00050BD00089A99993ECDCC1441CDCC2441CF
:1056D000E12E654200003443000034C30000B443AF
:1056E0002DE9F84F00F1800104467830054600911D
:1056F000FBF790FA84F8C800B4F87800A4F8A80082
:10570000B4F85A00A4F8AA0004F1A80204F1580160
:1057100091468B462846FBF75BF984F8C800B4F83D
:10572000A800A4F8B000B4F88200A4F8B20004F114
:10573000B002904648460099FBF74AF984F8C80041
:10574000B4F89000A4F8A000B4F89200A4F8A20065
:1057500004F1A002154604F190014046FAF718FE44
:1057600084F8C80041462846B034FAF799FE2076FE
:10577000E16BBF480126D1ED001AB0EE002AC0ED62
:105780000D1AD1ED010A0027C0ED0E0A91ED020AB3
:10579000B84D80ED0F0A91ED031A80ED101A60EEFE
:1057A000812A34F8380C2081668141EEC02AE06FEE
:1057B00062EE822AC0ED002A61EEA02A61EEA11AF3
:1057C000E06F40EE012A40EEE01A22EE822A40EE1F
:1057D000401A80ED012AE06FB4F1B00441EE011AE5
:1057E000C0ED021AD4F82C0100EB870090ED000AFE
:1057F000B0EEC00A03F076FB05EB87007F1CFFB21A
:1058000080ED610A032FEDD3B4F84800A4F8C0007E
:1058100004F1C00204F1B801A4F8C26017468A4638
:1058200004F14800FBF772F984F8C800B4F8C0002E
:10583000A4F8A80024F8AA6F4A4639464046FBF768
:10584000C7F8A077E681E08A208251463846FBF708
:10585000E1F9A077884A49465046FBF7B9F8A077A6
:1058600095ED730AB6EE001AD5ED720A20EE011A14
:10587000AA3CF4EEC10AF1EE10FA01D285F83861C3
:10588000F4EEC00A0020F1EE10FA35DD95F838117B
:1058900089B395F8391139B1D5E95021521C41F13C
:1058A0000001C5E9502102E00021C5E95011D5E908
:1058B00050234FF0320C0021BCEB0202994102D27E
:1058C00085F8380136E06D4D14F80C2F28884243D6
:1058D000D4E937017434FBF758FA14F8740C10FB50
:1058E00000F228884243D4E91E01FBF74EFA04F87F
:1058F000546CBDE8F88FFFE79FED611A20EE011AA6
:10590000F4EEC10AF1EE10FA0DDD95F8381151B13F
:1059100070EE600A9FED5B1A20EE010A80EE801A9D
:1059200085ED671A03E0B7EE000A85ED670A0021EE
:10593000C5E9501184F82C00B4F85800A4F8A80068
:10594000B4F88200A4F8AA004A4658466C3400997C
:10595000FBF73EF804F85C0FA4F130029346414691
:105960004846C83CFBF734F884F8C80000200DE036
:10597000D4F81C11D5ED670A01EB8001401C91EDB4
:10598000000AC0B220EE200A81ED000AB4F8981097
:10599000B4F89A2051438142EADC04209FED3A0A90
:1059A000002105EB800C00EB400300BF9CED5D1A6D
:1059B000D4F81C2103EB0108C1EE000A02EB8802B7
:1059C000491C92ED001AC9B2032960EE810AC2EDAA
:1059D000000AEBD3401CC0B20628E1D334F8980F7C
:1059E00052462084668439465846FAF7F1FF84F817
:1059F000300095F83801983C50B39FED240ADFED54
:105A0000240A0420D4F8BC1095ED6F1A01EB800134
:105A100021EE001AD1ED001AF4EEC11AF1EE10FADF
:105A200001DD81ED001AD4F8BC1095ED6F1A01EB81
:105A3000800121EE201AD1ED001AF4EEC11AF1EE28
:105A400010FA01D281ED001A401CC0B20628D9D349
:105A5000D4F8BC009FED0F0A04F1300280ED030A78
:105A6000514604F13800FAF793FC84F8C80040E787
:105A700044010020A056002060580020DE000020D5
:105A8000CDCCCC3D6666663FDA0FC93F0AD7233CD2
:105A90000AD723BC00000000114810B590ED070A9A
:105AA0001048D0ED030A104801F00EFA0E4890EDB0
:105AB0000D0A04F020F900EE100A9FED0C1ADFED3C
:105AC0000C0AB8EEC00A04F006F9BCEEC00ABDE844
:105AD000104010EE100A002182B2064801F022BFE9
